:020000040000FA
:100000009E31002E8A01EB298A018801911C1B2850
:1000100091109D209B209920972021008C17200073
:10002000A30B0832A10803190032A2012008A30083
:1000300021008C1382242000111D3B323714B71C81
:10004000043225000A3093002E3237191E32250063
:100050009318273213182532200891072108923D62
:10006000093093002000541E063225002030A200E3
:100070004E30A300053225004030A2009C30A30082
:100080002008A2022108A33B1232250093180B324C
:10009000131CE2330A3093004030A2009C30A300CE
:1000A000023208309300220891072308923D200075
:1000B0001111911E0132F120090020005F30FF0074
:1000C00020308400850177205030FF00A03084006C
:1000D0007720850A6E20850A6E20850A5030FF0041
:1000E0002030840077205030FF00A0308400800151
:1000F000840AFF0BFC3308000030A6004130840066
:100100008501C7201A00A60A5C300402031DF933DA
:1001100008000030A6004130840085011200A700CD
:10012000D120A60A5C300402031DF83308002F30EA
:1001300005322D3003322B3001322930840000305B
:100140008500130000040319080001308002840AAE
:100150000301803B080020002E082F040800200027
:100160002C082D04080020002A082B040800200079
:1001700028082904080005300332413001321930C3
:10018000F70000000000F70BFC330800A60026086B
:10019000230091001513951315141308200008006F
:1001A000A6002608230091002000270823009300C2
:1001B0001513951315158B138B1BFD3355309600B6
:1001C000AA30960095149518FE3315118B17200050
:1001D000080032190800300823009A002000321568
:1001E000080023001D080639031D053219082000E8
:1001F000B100B21408001908B1011D121D119D10A3
:100200001D1620000800F8002200A00A22081F394D
:10021000A20A263E84000130850078088000200074
:10022000080022007810A00803190A327814A003ED
:1002300023081F39A30A263E8400013085000008E8
:10024000200008002200A001A301A2012000080054
:1002500022002008200008002200210820000800B9
:10026000F8002200A10A24081F39A40A463E84008F
:100270000130850078088000200008002200A108D5
:1002800003190232A103A403200008002200781001
:10029000A10803190A327814A10325081F39A50AF9
:1002A000463E84000130850000082000080021003F
:1002B000A008031907322000A808031D0332B8154F
:1002C0002100A0011121781C0800F8000530A800C9
:1002D0002100A008031D0532DD3078020319201427
:1002E0001832A0180632DD307802031DC529A0148B
:1002F0001032210020190F32A301A2012115200084
:10030000520821007802031D211120157808A4004D
:10031000A30620000800201A0C32A1152000530863
:1003200021007802031DA11120167808A500A3065C
:10033000F033201B0F322208A63E840000308500D7
:100340007808A3068000A20A04302202031DE133CC
:100350002017DF3378082302031D1732A6308400EC
:1003600000308500AA308600003087000430F80095
:1003700012001E00F80BFC33A1142114211D2110C2
:10038000A11D2110A00120000800A0012229013098
:100390000430F800AE3086000030870000301E00C8
:1003A000F80BFD33200008002000FA015308FA067C
:1003B00030215208FA06302121000430F900AE3015
:1003C0008600003087001600FA063021F90BFB3357
:1003D0007A083021C7298B31F12381313824102448
:1003E00064002821031D57212100A11C03328831FC
:1003F000042081312000643038190A30A000E9233C
:100400002100321C0B3232103F08B5074008B63DC0
:100410003636B600C000350CB500BF008A318F22D9
:100420008231CD23111AE920B21C03323108B210F7
:100430000321321D05324621781C0232B0003211F0
:10044000200051080B00292A352A972AD92A812B06
:10045000F02921003935FC003A0DFD00B830FC07C9
:100460000730FD3D65242424282A2100B6303907B1
:10047000F90003303A3DFA0020003F08F902400835
:10048000FA3BFA1F103221001A303907F900043004
:100490003A3DFA0020003F08F9024008FA3BFA1BF7
:1004A00008323715282A4808FC004908FD00242492
:1004B000282A4608FC004708FD002424282A20009A
:1004C000541C0800F9015535F800F90DF835F90DFF
:1004D00021003508F8023608F93B2000F91BB71552
:1004E00008002000F9015735F800F90DF835F90D2D
:1004F00021003508F8023608F93B2000F91B3716B1
:10050000F91BB816F90104305707F8000030F93D1F
:10051000F835F90DF835F90D21003508F8023608DF
:10052000F93B2000F91BB716F91B3816080020000C
:10053000B41B3D325F22B71D0632B301B401B417BC
:100540003815B71134323811D00803192532371C49
:10055000282A371035083302FC003608343BFD00EA
:100560007C0403191D32FD1FC02A7D0FBB2A5008D1
:100570007C07031811325008B5020030B63B103228
:10058000FD08031D043250087C02031C053250088C
:10059000B5070301B63D04323308B5003408B60090
:1005A0003508FC003608FD0065242424282A371568
:1005B000282A2000B41B08325F22B71D0C323815E0
:1005C000B711B301B401B4173F084407B5004008A0
:1005D000453DB6008632381139190A323308FC001D
:1005E0003408FD0065247C08B3007D08B40039158B
:1005F000D008031D05323308B5003408B600263292
:10060000371C2432371033083502F8003408363BE3
:10061000780403191B3203180D323814B81050082F
:10062000B5070030B63D330835023408363B0318B1
:10063000E2330C323810B8145008B5020030B63B23
:10064000330835023408363B031CD5333F084407D2
:10065000F9004008453D3F39FA003508F9023608EF
:10066000FA3B79087A0403193C32D608031913328D
:100670007908FC007A08FD00FA1F0632FC01FD0132
:100680007908FC027A08FD3BFD08031D0432560878
:10069000FC02031C2632FA1F09327F3079047A05E6
:1006A000FF3A03190A328030F900073280307905A9
:1006B0007A04031902327F30F900D41C0932790818
:1006C000803C031D02328130F9007908003CF900BA
:1006D00079084A02FC000030F91BFF304B3BFD005B
:1006E0000932D41D0A324A08FC004B08FD003810BC
:1006F000B810371160242424282A37153810B81070
:10070000282A2000B41B45325F227122B71D063211
:10071000B301B401B4173815B7113B323811D00802
:100720000319D00A371C282A371035083302FC0079
:100730003608343BFD007C0403190F32FD1F1132D3
:100740007D0FA82B50087C07031C023201300132B8
:100750005008B5020030B63B1332B71EC02B013033
:10076000F833371AFA33FD08031D063250087C02AD
:1007700003180232013001325008B5070301B63DBB
:100780003508FC003608FD00652424243712B71212
:10079000282A37153712B712282A2000AE08031965
:1007A0000B325B180632DB1804325B190232DB1D98
:1007B00008000A30AE0008005B180732DB1806326A
:1007C0005B190532DB1904320800D92BD92BD92B40
:1007D000D92B21001D1C24329D182C32003085009D
:1007E0001D083435B53E84001B081A001C081A0089
:1007F000340AF80003010314890DF80BFD33B20429
:100800000430340203190F32B40A340AF800030129
:100810000314890DF80BFD3333050319F13304324A
:100820002100E0309E00B4011C2409149D00043016
:10083000C0209D1420000800340807390B00003444
:10084000043408340C34103425007C082002031DC5
:1008500004327D082102031908328B138B1BFD33F0
:100860007C08A0007D08A1008B172000371108002C
:100870002000B71C0800B7104F2424242500403066
:10088000A2009C30A300200000309600FF309700AB
:100890002500920191010830930020000800B83033
:1008A000FC000B30FD0008002000B71808002500F0
:1008B0004030A2009C30A30020003715B714080078
:1008C000463084000030850004324C308400003013
:1008D00085002000023F7C02033F7D3B03180D3260
:1008E0000032003F7C02013F7D3B031808000032CC
:1008F000003FFC00013FFD000800023FFC00033FF9
:10090000FD0008002000580807390B003532063278
:100910001032113231321A321E32223221000C15BD
:10092000000000000000B524241D263221000C1117
:100930002332B52421320301241809142200091896
:100940000C15091C0C1121000C111632B524B9121A
:100950002418B9161132B524B9112418B9150C325E
:10096000B5243912241839160732200024100C1D22
:100970002414241CA41008002000590807390B0077
:10098000353206321032113231321A321E322232F0
:1009900021008C15000000000000EF24A41E263268
:1009A00021008C112332EF2421320301A4190914F0
:1009B000220009188C15091C8C1121008C1116328B
:1009C000EF24B912A419B9161132EF24B911A419E0
:1009D000B9150C32EF243912A41939160732200048
:1009E000A4118C1DA415A41D2412080020005A086F
:1009F00007390B00353206321032113231321A32D9
:100A00001E32223222000C160000000000002925B0
:100A1000251C263221000C12233229252132030104
:100A2000241B0914220009180C16091C0C122100A1
:100A30000C1216322925B912241BB9161132292598
:100A4000B911241BB9150C3229253912241B39166A
:100A50000732200024130C1E2417241FA41308009F
:040A6000200008006A
:101000008131D421883108002100A1102118023239
:10101000200008002000AA30860000308700AE3093
:101020008400003085001600F800F039031D1332EB
:1010300078080F390B0008007F328632AD28B528BA
:10104000BF28C928D328DE28E7280800EF28F82879
:10105000012907291029803C031D133278080F3914
:101060000B00080062326B32AA28B028BA28C428C4
:10107000CE28D828E1280800EA28F428FB280429EB
:101080000A297808F039203C031D0D32F8190800B0
:10109000073078050B00080016299629D1291B2A4C
:1010A0000800080008007808F039B03C031D0D3234
:1010B000F8190800073078050B00080013291929D2
:1010C000A229162A0800080008007808F039903C88
:1010D000031D13320F3078050B000800202A262A42
:1010E0002B2A362A3A2A3E2A08004A2A0100572A81
:1010F000080008000800080008007808F039A03C43
:10110000031D03320F3078050B0008005D2A632AA7
:101110000800080008000800080008000800692A04
:101120000800080008000800080005300102031844
:101130006F331600D1008A2A51081A0000281600C1
:10114000B3001600B4008A2A33081A0034081A00C3
:10115000391100281600D5008A2A55081A000028DF
:101160001600C8001600C9008A2A48081A00490853
:101170001A0000281600C6001600C7008A2A460872
:101180001A0047081A0000281600CC001600CD00EF
:101190008A2A4C081A004D081A0000281600CE00B2
:1011A0001600CF008A2A4E081A004F081A0000289D
:1011B000D410013001060319D4148A2AD41800145B
:1011C0000028541001300106031954148A2A5418B7
:1011D000001400281600CA001600CB008A2A4A080C
:1011E0001A004B081A00002816003F39D0008A2A3E
:1011F00050081A000028D411013001060319D41533
:101200008A2AD419001400281600D6008A2A560803
:101210001A000028541201300106031954168A2AB4
:10122000541A001400281600D7008A2A57081A00FA
:1012300000280108023C031C08281600F800023CA4
:10124000031C08287808583E8400003085001600EA
:1012500007391A000B0007320632053225324532B3
:101260000232013200327808031D093223000C11CA
:101270002100B3110C1522000C1120008A2A013C18
:10128000031D093223008C11210033128C1522001A
:101290008C1120008A2A23000C122100B3120C1694
:1012A00022000C1220008A2A7808031D093223002C
:1012B0000C112100B3110C1122000C1120008A2AFC
:1012C000013C031D093223008C11210033128C11C3
:1012D00022008C1120008A2A23000C122100B31254
:1012E0000C1222000C1220008A2A7808031D0932F1
:1012F00023000C152100B3150C1522000C11200041
:101300008A2A013C031D093223008C152100331663
:101310008C1522008C1120008A2A23000C16210033
:10132000B3160C1622000C1220008A2A0108023C77
:10133000031C08280108583E860000308700010879
:101340001A0000281600F800023C031C0828780840
:10135000583E840000308500000807390B008A2AB7
:101360001F328A2A04328A2A8A2A8A2A8A2A7808F2
:10137000031D053216002410091824148A2A013C82
:10138000031D05321600A4110918A4158A2A78082D
:10139000023C031D8A2A16002413091824178A2ADE
:1013A0008A2A0108F800023C031C08287808583EE5
:1013B000860000308700010807390B000828233217
:1013C0000F320E3203320C320B320A327835B93E0C
:1013D00086000030870016001A0016001A00002848
:1013E0007808031D0432241801301A000028013C3B
:1013F000031D0432A41901301A0000280301241B24
:1014000001301A0000287808031D04322418013026
:101410001A000028013C031D0432A41901301A00EF
:1014200000280301241B01301A0000281600C40004
:101430001600C5008A2A44081A0045081A00002828
:10144000210035081A0036081A0000283F081A0043
:1014500040081A0000283C081A003D081A003E08FF
:101460001A000030BE1BFF301A000028803189208E
:101470008A318A2A80317C208A318A2A21003708E1
:101480001A0038081A000028210039081A003A0802
:101490001A00002838081A0039081A003A081A00F9
:1014A0003B081A00B811B8123812B9010028FF30F1
:1014B000A7008031D0208A3101001600D20080318F
:1014C00089208A3100281600D300803189208A3192
:1014D0000028F901790872220038031908008B22CC
:1014E000F90AF8330B0044344D3446344534203483
:1014F000533465347234693461346C342034533479
:101500006534723476346F342034723443340A34A0
:1015100000340800FF30813130218A3108006D230A
:10152000200070183914F019B9147808F6007908F9
:10153000F7003F08F9004008FA007608BF00770876
:10154000C000411C06323C30770503197717C115DE
:101550000A32C11C08323C3077053C3A031D033285
:101560004030F702C11541113F08400403194115ED
:101570004119C115C1103C3040050319C114411077
:101580003C3040053C3A031941147908F6027A08C8
:10159000F73BF801FF30F71BF8007608BC07770827
:1015A000BD3D7808BE3D08003E23411E4E326C30E2
:1015B0004207F8000730433DF900F03903190732BC
:1015C0003F0842024008433B891B4D320C3242081F
:1015D0003F024308403B891F063278083F027908E2
:1015E000403B891B40326C3042020730433B891F2D
:1015F000193242083F024308403B891B3432003015
:10160000F8002030F9004208F8024308F93B6C303A
:10161000F8020730F93B3F0878024008793B891B04
:101620002032080042083F024308403B891F08005F
:101630006C304202F8000730433BF9003F08780263
:101640004008793B891B0F32080041163F08C20051
:101650004008C300803189208B3108001030C03D24
:1016600002321030C03B42083F02BC004308403BFE
:10167000BD00FF30BD1F0030BE0008002000BC01CF
:10168000BD01BE01080022000D1421000D108D14B3
:101690000C130D122400223095009417141320000F
:1016A0000800F01070117913C923B4237B08F900E6
:1016B0007A08F8007913C923B4237908FB00780865
:1016C000FA000030F800C030F900B423DC23F01138
:1016D000791BF0153F30F9050800FF30F8007F3026
:1016E000F900C923B423DC23F011791BF0153F3036
:1016F000F905701D0332F01C013208007015F0145A
:10170000EC33FE30F8007F30F900A32BFC30F800FA
:101710003F30F900A32B1630F8000030F900A32B5E
:101720001730F8000030F900A32B1830F800003013
:10173000F900A32B1930F8000030F900A32B013079
:10174000F8000030F900AB23DC23F011791BF01511
:101750003F30F90508007011F0107917C923B42340
:101760000030F800C030F90022000D102400790884
:1017700091000000141CFD331108F9007808910055
:101780000000141CFD331108F80022000D14200085
:101790000800F6010F30F700F80DF90D80307905DB
:1017A000F606F70BF933F80DF90DF80DF90D803049
:1017B0007605F913F9040800F6010F30F700F80D6B
:1017C000F90D80307905F606F70BF933F80DF90DB0
:1017D000F80DF90D7608790680397010891B7014A0
:1017E00008002100951795129511151495141515DB
:1017F0002100F03099001730970024008C16230048
:1018000003308C0000308D0020004F309C007D3074
:101810009B00210091142000213098009913220090
:101820009D171E141D1780315D208C31640080319E
:101830007C208C31B7142500930121001115200064
:1018400011308D0000308C002100BF308C00C6307C
:101850008D00230008309F00CF309B0000309C009B
:1018600024309E0090309D002100911620006400DD
:1018700020006430A0000130A3006430AE00B41733
:101880006400432321003314B31449240B178B172E
:10189000080058080B000732063205320D321532A7
:1018A00002320132003223000C112100B3110C1559
:1018B00022000C112000113223000C112100B31161
:1018C0000C1122000C112000083223000C152100FD
:1018D000B3150C1522000C11200059080B0007321B
:1018E000063205320D321532023201320032230047
:1018F0008C11210033128C1522008C112000113222
:1019000023008C11210033128C1122008C11200035
:10191000083223008C15210033168C1522008C11FF
:1019200020005A080B000732063205320D321532FC
:1019300002320132003223000C122100B3120C16C5
:1019400022000C122000080023000C122100B31208
:101950000C1222000C122000080023000C1621009B
:0C196000B3160C1622000C122000080028
:103C00009E270427FF3A031D0B322A30FE262A3056
:103C1000FE26A001A101A501A601462712260D2717
:103C200080310228AC10AA01A801AD01DE262C10BB
:103C3000ED26F8003A307802031D03320130AA0065
:103C4000F633AA080319F43330307802031CEB333F
:103C50003A307802031C0A3241307802031CE33305
:103C6000473078020318DF330730F8023030F802AB
:103C70002C180432780EAB002C14DA337808AB071A
:103C80002A0807390B00CF330632113214321732AB
:103C90001D322532C83341302B02031C03322B3036
:103CA000FE26132E2B08A700AD07AA0A172E2B08F5
:103CB000A400AD07FA332B08A300AD07F6332B0899
:103CC000A900AD07A7080319AA0AEF332B081A00A9
:103CD000AD07A80A28082702031D172EE633F801AE
:103CE0002D0878022B02031903322D30FE26132EE5
:103CF0002908F839031D183229080B000B32063247
:103D000013321232093210320F320E32AC18CD2675
:103D10002A30FE2E96260532DE261200A60012005C
:103D2000A5002A30FE26132E3D30FC33250826043C
:103D3000031D0800A436A30C1E302402031808003B
:103D4000AC1C0D3224082102031D0832E03020058E
:103D5000F800E0302305780203190A32CD26230843
:103D6000E039A0002408A100FF30E03A2305A200BA
:103D7000DE262235003E8600213087002808F90023
:103D80002836A20712001E00F90BFC33AC142030B9
:103D9000220203190232031C0800E32651270030D7
:103DA000840021308500E3262C2709180632E326FB
:103DB0001F27091C6327E8267A27462F80308400B6
:103DC000213085000800403086002130870008003F
:103DD000003086002130870008002000911EFD334E
:103DE00023001D080639031D0332190820000800AE
:103DF00019081D121D119D101D16EF33111EFE33E3
:103E000023009A00200008002300FF3091001513C2
:103E1000951315141308200008002300FF309100AB
:103E20000030930015139513151555309600AA30E0
:103E3000960095149518FE331511200008002030C7
:103E4000F9001600FF3C031D003416003F3C031D23
:103E50000034F90BF63301342030F9001200F7007A
:103E60001200F8003F3C031D0632770A031D03329F
:103E700016001600083216007702031D00341600E3
:103E80007802031D0034F90BE9330134E826AC1045
:103E90002030F900FF301E003F301E00F90BFA33CE
:103EA00008007227151395172030F900151400002B
:103EB000000013081E0014081E00F90B0232200037
:103EC0000800910AF3337227951715131516151567
:103ED00055309600AA309600951400000000151188
:103EE0002000080021082300920020002008230061
:103EF0009100080072279517151315159516203097
:103F0000F900160093001600940011081F3A1F399B
:103F10000319093255309600AA3096009514000016
:103F20000000910AEE33951255309600AA309600A3
:103F300095140000000015112000080021009517BD
:103F400095129511151495141515F0309900173028
:103F5000970024008C16230003308C0000308D0065
:103F600022009D171E141D17200011308D000030F7
:103F70008C002100BF308C00C6308D00230008303B
:103F80009F00CF309B0000309C0024309E0090307A
:083F90009D0020008B130800C6
:020000040001F9
:08000000010000000B000400E8
:10E00000000000000000000000001D000B00E50003
:10E010000B0081000B006400000098003F000A0024
:10E020000300010002001900320064002800000013
:06E03000000000000000EA
:02E1FE0000001F
:02000E00A42F1D
:02001000FF1FD0
:00000001FF
