:020000040000FA
:100000009E31002E8A01582A8A018801911C882875
:1000100091100A2108210621042121008C170C15BA
:100020008C152000A30B0832A10803190032A2018D
:100030002008A30021008C13200061080F39013C27
:10004000031D203221000C15200064100C1D6414C7
:10005000A408031D0332A601A801143228082604AF
:1000600003190A32A80B0E32A60803190532A60B93
:1000700005326430A80006322408A6001430A80017
:1000800021000C11200061080F39033C031D0A32C6
:10009000241C033222000C15033222000C11003202
:1000A00021000C11200062080F39013C031D203291
:1000B00021008C152000E4108C1DE414A508031DFC
:1000C0000332A701A90114322908270403190A32AF
:1000D000A90B0E32A70803190532A70B05326430AD
:1000E000A90006322508A7001430A90021008C11B0
:1000F000200062080F39033C031D0A32251C03321D
:1001000022008C15033222008C11003221008C1148
:100110002000111D3B323D14BD1C043225000A3065
:1001200093002E323D191E322500931827321318E2
:100130002532200891072108923D093093002000C4
:100140005D1E063225002030A2004E30A30005328D
:1001500025004030A2009C30A3002008A202210804
:10016000A33B1232250093180B32131CE2330A30E2
:1001700093004030A2009C30A3000232083093006C
:10018000220891072308923D20001111911E01328F
:100190005E21090020005F30FF00203084008501CF
:1001A000E4205030FF00A0308400E420850ADB20EA
:1001B000850ADB20850A5030FF0020308400E420CF
:1001C0005030FF00A03084008001840AFF0BFC3314
:1001D00008000030AA0047308400850134211A004D
:1001E000AA0A65300402031DF93308000030AA0092
:1001F0004730840085011200AB003E21AA0A653019
:100200000402031DF8330800333005323130033265
:100210002F3001322D30840000308500130000049F
:100220000319080001308002840A0301803B0800A2
:100230002000320833040800200030083104080090
:1002400020002E082F04080020002C082D04080090
:1002500005300332413001321930F7000000000050
:10026000F70BFC330800AA002A082300910015139D
:1002700095131514130820000800AA002A0823006B
:10028000910020002B0823009300151395131515DA
:100290008B138B1BFD3355309600AA3096009514B6
:1002A0009518FE3315118B17200008003619080029
:1002B000340823009A0020003615080023001D088A
:1002C0000639031D053219082000B500B6140800D0
:1002D0001908B5011D121D119D101D1620000800E2
:1002E000F8002200A00A22081F39A20A263E840034
:1002F0000130850078088000200008002200781076
:10030000A00803190A327814A00323081F39A30A8E
:10031000263E8400013085000008200008002200ED
:10032000A001A301A2012000080022002008200053
:1003300008002200210820000800F8002200A10A7D
:1003400024081F39A40A463E84000130850078083D
:100350008000200008002200A10803190232A10336
:10036000A4032000080022007810A10803190A3213
:100370007814A10325081F39A50A463E84000130E0
:1003800085000008200008002100A008031907329A
:100390002000AC08031D0332BE152100A0017E2100
:1003A000781C0800F8000530AC002100A008031DEF
:1003B0000532DD307802031920141832A0180632F5
:1003C000DD307802031D322AA014103221002019DA
:1003D0000F32A301A201211520005B082100780241
:1003E000031D211120157808A400A3062000080091
:1003F000201A0C32A11520005C0821007802031D90
:10040000A11120167808A500A306F033201B0F3297
:100410002208A63E8400003085007808A3068000EC
:10042000A20A04302202031DE1332017DF337808CB
:100430002302031D1732A630840000308500AA3045
:100440008600003087000430F80012001E00F80B10
:10045000FC33A1142114211D2110A11D2110A00184
:1004600020000800A0018F2901300430F800AE30D0
:1004700086000030870000301E00F80BFD3320009E
:1004800008002000FA015C08FA069D215B08FA06C4
:100490009D2121000430F900AE3086000030870035
:1004A0001600FA069D21F90BFB337A089D21342AA8
:1004B0008B319C238231A624872464009521031D5F
:1004C000C4212100A11C0332883104208231200084
:1004D00064303E190A30A0002B242100321C0B325C
:1004E00032103B08B3073C08B43D3436B400BC00BE
:1004F000330CB300BB008A313A2282310F24111A27
:100500005621B61C03323508B6107021361D05324F
:10051000B321781C0232B400361120005A080B00B7
:10052000962AA22A042B462BC32B5D2A210037359D
:10053000FC00380DFD00B830FC070730FD3DCE242F
:100540009224952A2100B6303707F9000330383D50
:10055000FA0020004508F9024608FA3BFA1F10325B
:1005600021001A303707F9000430383DFA00200026
:100570004508F9024608FA3BFA1B08323D15952A50
:100580004C08FC004D08FD009224952A4E08FC0002
:100590004F08FD009224952A20005D1C0800F901F7
:1005A0005E35F800F90DF835F90D21003308F80231
:1005B0003408F93B2000F91BBD1508002000F901A3
:1005C0006035F800F90DF835F90D21003308F8020F
:1005D0003408F93B2000F91B3D16F91BBE16F90142
:1005E00004306007F8000030F93DF835F90DF835B2
:1005F000F90D21003308F8023408F93B2000F91BFB
:10060000BD16F91B3E1608002000B81B3D32CC2257
:10061000BD1D0632B701B801B8173E15BD11343201
:100620003E11D608031925323D1C952A3D10390884
:100630003702FC003A08383BFD007C0403191D32E8
:10064000FD1F2D2B7D0F282B56087C070318113218
:100650005608B9020030BA3B1032FD08031D0432BF
:1006600056087C02031C05325608B9070301BA3D3F
:1006700004323708B9003808BA003908FC003A08D3
:10068000FD00CE249224952A3D15952A2000B81B02
:100690002732CC22BD1D0632B701B801B8173E156E
:1006A000BD111E323E113708F9003808FA0045081E
:1006B0004A07FC0046084B3D3F39FD007C08F90223
:1006C0007D08FA3BFA1F19325F083707F90000303E
:1006D000383DFA007C08F9027D08FA3BFA1B173214
:1006E0003E10BE10DD1D07325008BB00B900510896
:1006F000BC00BA0015323D15952ADD180A32BE1825
:10070000EF333E144C08BB004D08BC000932DD1825
:10071000F6333E18E533BE144E08BB004F08BC004C
:10072000D608031925323D1C952A3D1039083B0295
:10073000FC003A083C3BFD007C0403191D32FD1F00
:10074000AC2B7D0FA72B56087C07031811325608D7
:10075000B9020030BA3B1032FD08031D04325608BE
:100760007C02031C05325608B9070301BA3D043266
:100770003B08B9003C08BA003908FC003A08FD0003
:10078000CE249224952A2000B81B4532CC22DE22AA
:10079000BD1D0632B701B801B8173E15BD113B3279
:1007A0003E11D6080319D60A3D1C952A3D1039087A
:1007B0003702FC003A08383BFD007C0403190F3275
:1007C000FD1F11327D0FEA2B56087C07031C0232F5
:1007D000013001325608B9020030BA3B1332BD1E57
:1007E000022C0130F8333D1AFA33FD08031D06329E
:1007F00056087C0203180232013001325608B9074C
:100800000301BA3D3908FC003A08FD00CE249224C9
:100810003D12BD12952A3D153D12BD12952A2000AC
:10082000B20803190B3264180632E4180432641952
:100830000232E41D08000A30B200080064180732D2
:10084000E418063264190532E419043208001B2C3E
:100850001B2C1B2C1B2C21001D1C59329D18603297
:10086000003085001D0820007C3903191E32F80075
:1008700061080F39043C031D043208307802031963
:10088000333262080F39043C031D04320830780209
:1008900003192A3200307802031907320030F800B9
:1008A000B3308400210032142532B330840021009B
:1008B00032140430F80061080F39043C03191A326D
:1008C0000830F80062080F39043C031913320C3069
:1008D000F80063080F39043C03190C320030F800AB
:1008E0000932B5308400EC33B7308400F033B930CE
:1008F0008400F43321001B081A001C081A00780831
:1009000009149D0004302D219D14200008002100B1
:10091000E0309E00003009149D0004302D219D140C
:100920002000080025007C082002031D04327D08F9
:100930002102031908328B138B1BFD337C08A000A6
:100940007D08A1008B1720003D1108002000BD1C70
:100950000800BD10BD24922425004030A2009C3028
:10096000A300200000309600FF3097002500920180
:1009700091010830930020000800B830FC000B30D3
:10098000FD0008002000BD18080025004030A2002E
:100990009C30A30020003D15BD1408002000550820
:1009A0007D02031CDC2C031DEB2C54087C02031974
:1009B00008000318EB2C080053087D02031CE62CEA
:1009C000031D0800D2087C02031808005208FC002E
:1009D0005308FD0008005408FC005508FD000800FD
:1010000082314122883108002100A11021180232CA
:10101000200008002000AA30860000308700AE3093
:101020008400003085001600F80081307802031D2E
:101030000832053001020318EB331600DA00A40071
:10104000352A01307802031D03325A081A0000289D
:1010500082307802031D05321600B7001600B80072
:10106000352A02307802031D053237081A00380885
:101070001A00002883307802031D03321600DE00B8
:10108000352A03307802031D03325E081A00002857
:1010900084307802031D05321600CC001600CD0006
:1010A000352A04307802031D05324C081A004D0819
:1010B0001A00002885307802031D05321600CE0084
:1010C0001600CF00352A05307802031D05324E0880
:1010D0001A004F081A00002886307802031D0532D6
:1010E0001600D2001600D300352A06307802031D00
:1010F000053252081A0053081A0000288730780277
:10110000031D05321600D4001600D500352A07301D
:101110007802031D053254081A0055081A000028E9
:1011200088307802031D0632DD10013001060319F4
:10113000DD14352A08307802031D0332DD1800144F
:10114000002889307802031D06325D100130010647
:1011500003195D14352A09307802031D03325D1826
:10116000001400288B307802031D05321600D000D1
:101170001600D100352A0B307802031D05325008C5
:101180001A0051081A0000288C307802031D04321E
:1011900016003F39D600352A0C307802031D033281
:1011A00056081A0000288D307802031D0632DD1122
:1011B000013001060319DD15352A0D307802031DB3
:1011C0000332DD19001400288E307802031D03322B
:1011D0001600DF00352A0E307802031D03325F0847
:1011E0001A0000288F307802031D06325D1201308C
:1011F000010603195D16352A0F307802031D0332EC
:101200005D1A00140028B1307802031D0332160065
:10121000E000352A21307802031D033260081A00ED
:101220000028B2307802031D0C320108023C031C76
:1012300008281600613E84000030850016001A0060
:10124000352A22307802031D0C320108023C031CAF
:1012500008280108613E86000030870001081A0056
:101260000028B3307802031D1D321600F800023C3E
:10127000031C08287808613E8400003085000008BF
:1012800007390B00352A0632352A0432352A352A29
:10129000352A352A7808243E84000030850016005F
:1012A0001A00352A23307802031D3B320108F8006A
:1012B000023C031C08287808613E86000030870045
:1012C000010807390B0008281C320F320E32033296
:1012D0000C320B320A327835B53E8600003087007A
:1012E00016001A0016001A0000287808031D0432A0
:1012F0000C1901301A00002803018C1901301A0062
:1013000000287808031D0432641801301A000028F0
:10131000013C031D0432E41801301A0000280301C7
:101320000028B4307802031D05321600CA001600EA
:10133000CB00352A24307802031D05324A081A00F2
:101340004B081A00002891307802031D0632210054
:1013500033081A0034081A00002892307802031D5E
:10136000053245081A0046081A0000289330780212
:10137000031D0B3242081A0043081A0044081A00E1
:101380000030C41BFF301A00002894307802031D7F
:1013900004328031F6208931352A95307802031DD8
:1013A00004328031E9208931352A96307802031DD4
:1013B0000632210035081A0036081A000028983035
:1013C0007802031D0D323E081A003F081A0040083B
:1013D0001A0040081A00BE11BE123E12BF010028BA
:1013E00099307802031D013201009A307802031D02
:1013F0000632FF30AB0081313D2189310100A1303F
:101400007802031D06321600DB008031F6208A3197
:101410000028A2307802031D06321600DC0080315D
:10142000F6208A310028AA307802031D1D32F90106
:10143000790820220038031908003622F90AF83307
:101440000B0044344D344634453420345334653431
:101450007234693461346C342034533465347234FA
:1014600076346F340A3400340800FF3081319D2116
:101470008A3108001823200070183F14F019BF1497
:101480007808F6007908F7004508F9004608FA00E0
:101490007608C5007708C600471C06323C30770541
:1014A00003197717C7150A32C71C08323C30770575
:1014B0003C3A031D03324030F702C7154711450877
:1014C0004604031947154719C715C7103C30460590
:1014D0000319C71447103C3046053C3A031947141A
:1014E0007908F6027A08F73BF801FF30F71BF8009D
:1014F0007608C2077708C33D7808C43D0800E92292
:10150000471E4E326C304807F8000730493DF9005D
:10151000F03903190732450848024608493B891B40
:101520004D320C32480845024908463B891F0632B5
:10153000780845027908463B891B40326C304802E6
:101540000730493B891F1932480845024908463B84
:10155000891B34320030F8002030F9004808F802C6
:101560004908F93B6C30F8020730F93B450878022E
:101570004608793B891B2032080048084502490883
:10158000463B891F08006C304802F8000730493B91
:10159000F900450878024608793B891B0F3208009C
:1015A00047164508C8004608C9008031F6208A3130
:1015B00008001030C63D02321030C63B48084502D4
:1015C000C2004908463BC300FF30C31F0030C400BF
:1015D00008002000C201C301C401080022000D144C
:1015E00021000D108D140C130D12240022309500D3
:1015F0009417141320000800F0107011791374234D
:101600005F237B08F9007A08F800791374235F23BD
:101610007908FB007808FA000030F800C030F900C3
:101620005F238723F011791BF0153F30F90508007F
:10163000FF30F8007F30F90074235F238723F01117
:10164000791BF0153F30F905701D0332F01C013293
:1016500008007015F014EC33FE30F8007F30F9000C
:101660004E2BFC30F8003F30F9004E2B1630F800BE
:101670000030F9004E2B1730F8000030F9004E2BE7
:101680001830F8000030F9004E2B1930F800003007
:10169000F9004E2B0130F8000030F9005623872363
:1016A000F011791BF0153F30F90508007011F010AA
:1016B000791774235F230030F800C030F90022004E
:1016C0000D102400790891000000141CFD3311084E
:1016D000F900780891000000141CFD331108F8008F
:1016E00022000D1420000800F6010F30F700F80D5D
:1016F000F90D80307905F606F70BF933F80DF90D81
:10170000F80DF90D80307605F913F9040800F6019B
:101710000F30F700F80DF90D80307905F606F70B5C
:10172000F933F80DF90DF80DF90D760879068039C1
:101730007010891B701408002100951795129511DF
:10174000151495141515F0309900173097002400E2
:101750008C16230003308C0000308D0020004F30A9
:101760009C007D309B0021009114200021309800C6
:10177000991322009D171E141D178031CA208B312A
:1017800064008031E9208B31BD14250093012100D4
:101790001115200011308D0000308C002100BF3069
:1017A0008C00C6308D00230008309F00CF309B0096
:1017B00000309C0024309E0090309D002100911646
:1017C0002000640020006430A0000130A3006430D9
:1017D000B2005A08A400B8176400EE2203305A027F
:1017E000031D04320030B7000830B8000B178B1708
:0217F0000800EF
:103C00009E270427FF3A031D0B322A30FE262A3056
:103C1000FE26A001A101A501A601462712260D2717
:103C200080310228AC10AA01A801AD01DE262C10BB
:103C3000ED26F8003A307802031D03320130AA0065
:103C4000F633AA080319F43330307802031CEB333F
:103C50003A307802031C0A3241307802031CE33305
:103C6000473078020318DF330730F8023030F802AB
:103C70002C180432780EAB002C14DA337808AB071A
:103C80002A0807390B00CF330632113214321732AB
:103C90001D322532C83341302B02031C03322B3036
:103CA000FE26132E2B08A700AD07AA0A172E2B08F5
:103CB000A400AD07FA332B08A300AD07F6332B0899
:103CC000A900AD07A7080319AA0AEF332B081A00A9
:103CD000AD07A80A28082702031D172EE633F801AE
:103CE0002D0878022B02031903322D30FE26132EE5
:103CF0002908F839031D183229080B000B32063247
:103D000013321232093210320F320E32AC18CD2675
:103D10002A30FE2E96260532DE261200A60012005C
:103D2000A5002A30FE26132E3D30FC33250826043C
:103D3000031D0800A436A30C1E302402031808003B
:103D4000AC1C0D3224082102031D0832E03020058E
:103D5000F800E0302305780203190A32CD26230843
:103D6000E039A0002408A100FF30E03A2305A200BA
:103D7000DE262235003E8600213087002808F90023
:103D80002836A20712001E00F90BFC33AC142030B9
:103D9000220203190232031C0800E32651270030D7
:103DA000840021308500E3262C2709180632E326FB
:103DB0001F27091C6327E8267A27462F80308400B6
:103DC000213085000800403086002130870008003F
:103DD000003086002130870008002000911EFD334E
:103DE00023001D080639031D0332190820000800AE
:103DF00019081D121D119D101D16EF33111EFE33E3
:103E000023009A00200008002300FF3091001513C2
:103E1000951315141308200008002300FF309100AB
:103E20000030930015139513151555309600AA30E0
:103E3000960095149518FE331511200008002030C7
:103E4000F9001600FF3C031D003416003F3C031D23
:103E50000034F90BF63301342030F9001200F7007A
:103E60001200F8003F3C031D0632770A031D03329F
:103E700016001600083216007702031D00341600E3
:103E80007802031D0034F90BE9330134E826AC1045
:103E90002030F900FF301E003F301E00F90BFA33CE
:103EA00008007227151395172030F900151400002B
:103EB000000013081E0014081E00F90B0232200037
:103EC0000800910AF3337227951715131516151567
:103ED00055309600AA309600951400000000151188
:103EE0002000080021082300920020002008230061
:103EF0009100080072279517151315159516203097
:103F0000F900160093001600940011081F3A1F399B
:103F10000319093255309600AA3096009514000016
:103F20000000910AEE33951255309600AA309600A3
:103F300095140000000015112000080021009517BD
:103F400095129511151495141515F0309900173028
:103F5000970024008C16230003308C0000308D0065
:103F600022009D171E141D17200011308D000030F7
:103F70008C002100BF308C00C6308D00230008303B
:103F80009F00CF309B0000309C0024309E0090307A
:083F90009D0020008B130800C6
:020000040001F9
:08000000010000000B000400E8
:10E0000000000000000000000000EA000B002200F9
:10E010000B0086000B0008000700680010000A00D3
:10E02000200000000000030001000200190032007F
:0CE0300064002800000000000000000058
:02E1FE0000001F
:02000E00A42F1D
:02001000FF1FD0
:00000001FF
