:020000040000FA
:100000008031002E8A01BB2B8A018801911C88282F
:1000100091100A2108210621042121008C170C15BA
:100020008C152000A30B0832A10803190032A2018D
:100030002008A30021008C1320005E080F39013C2A
:10004000031D203221000C15200061100C1D6114CD
:10005000A408031D0332A601A801143228082604AF
:1000600003190A32A80B0E32A60803190532A60B93
:1000700005326430A80006322408A6001430A80017
:1000800021000C1120005E080F39033C031D0A32C9
:10009000241C033222000C15033222000C11003202
:1000A00021000C1120005F080F39013C031D203294
:1000B00021008C152000E1108C1DE114A508031D02
:1000C0000332A701A90114322908270403190A32AF
:1000D000A90B0E32A70803190532A70B05326430AD
:1000E000A90006322508A7001430A90021008C11B0
:1000F00020005F080F39033C031D0A32251C033220
:1001000022008C15033222008C11003221008C1148
:100110002000111D3B323D14BD1C043225000A3065
:1001200093002E323D191E322500931827321318E2
:100130002532200891072108923D093093002000C4
:100140005A1E063225002030A2004E30A300053290
:1001500025004030A2009C30A3002008A202210804
:10016000A33B1232250093180B32131CE2330A30E2
:1001700093004030A2009C30A3000232083093006C
:10018000220891072308923D20001111911E01328F
:10019000C122090020005F30FF002030840085016B
:1001A000E4205030FF00A0308400E420850ADB20EA
:1001B000850ADB20850A5030FF0020308400E420CF
:1001C0005030FF00A03084008001840AFF0BFC3314
:1001D00008000030AA0047308400850134211A004D
:1001E000AA0A62300402031DF93308000030AA0095
:1001F0004730840085011200AB003E21AA0A62301C
:100200000402031DF8330800333005323130033265
:100210002F3001322D30840000308500130000049F
:100220000319080001308002840A0301803B0800A2
:100230002000320833040800200030083104080090
:1002400020002E082F04080020002C082D04080090
:1002500005300332413001321930F7000000000050
:10026000F70BFC330800AA002A082300910015139D
:1002700095131514130820000800AA002A0823006B
:10028000910020002B0823009300151395131515DA
:100290008B138B1BFD3355309600AA3096009514B6
:1002A0009518FE3315118B17200008003522200009
:1002B00070183F14F019BF147808F6007908F70099
:1002C0004508F9004608FA007608C5007708C60018
:1002D000471C06323C30770503197717C7150A32D9
:1002E000C71C08323C3077053C3A031D03324030CE
:1002F000F702C71547114508460403194715471962
:10030000C715C7103C3046050319C71447103C30C9
:1003100046053C3A031947147908F6027A08F73B78
:10032000F801FF30F71BF8007608C2077708C33DD5
:100330007808C43D08000622471E4E326C3048073C
:10034000F8000730493DF900F03903190732450834
:1003500048024608493B891B4E320C324808450288
:100360004908463B891F0632780845027908463B12
:10037000891B41326C3048020730493B891F1932D2
:10038000480845024908463B891B35320030F800D1
:100390002030F9004808F8024908F93B6C30F802AF
:1003A0000730F93B450878024608793B891B213222
:1003B0000800480845024908463B891F08006C3080
:1003C0004802F8000730493BF90045087802460822
:1003D000793B891B1032080047164508C8004608BB
:1003E000C9008A11F6208A150A1208001030C63D8D
:1003F00002321030C63B48084502C2004908463B5D
:10040000C300FF30C31F0030C40008002000C20139
:10041000C301C401080022000D1421000D108D1429
:100420000C130D1224002230950094171413200091
:100430000800F0107011791391227C227B08F900DA
:100440007A08F800791391227C227908FB00780859
:10045000FA000030F800C030F9007C22A422F0112C
:10046000791BF0153F30F9050800FF30F8007F30A8
:10047000F90091227C22A422F011791BF0153F3063
:10048000F905701D0332F01C013208007015F014DC
:10049000EC33FE30F8007F30F9006B2AFC30F800B6
:1004A0003F30F9006B2A1630F8000030F9006B2A53
:1004B0001730F8000030F9006B2A1830F8000030CF
:1004C000F9006B2A1930F8000030F9006B2A01306E
:1004D000F8000030F9007322A422F011791BF01506
:1004E0003F30F90508007011F010791791227C2235
:1004F0000030F800C030F90022000D102400790807
:1005000091000000141CFD331108F90078089100D7
:100510000000141CFD331108F80022000D14200007
:100520000800F6010F30F700F80DF90D803079055D
:10053000F606F70BF933F80DF90DF80DF90D8030CB
:100540007605F913F9040800F6010F30F700F80DED
:10055000F90D80307905F606F70BF933F80DF90D32
:10056000F80DF90D7608790680397010891B701422
:10057000080036190800340823009A0020003615B8
:10058000080023001D080639031D05321908200044
:10059000B500B61408001908B5011D121D119D10F3
:1005A0001D1620000800F8002200A00A22081F39AA
:1005B000A20A263E840001308500780880002000D1
:1005C000080022007810A00803190A327814A0034A
:1005D00023081F39A30A263E840001308500000845
:1005E000200008002200A001A301A20120000800B1
:1005F0002200200820000800220021082000080016
:10060000F8002200A10A24081F39A40A463E8400EB
:100610000130850078088000200008002200A10831
:1006200003190232A103A40320000800220078105D
:10063000A10803190A327814A10325081F39A50A55
:10064000463E84000130850000082000080021009B
:10065000A008031907322000AC08031D0332BE15A1
:100660002100A001E122781C0800F8000530AC0050
:100670002100A008031D0532DD3078020319201483
:100680001832A0180632DD307802031D952BA01415
:100690001032210020190F32A301A20121152000E0
:1006A000580821007802031D211120157808A400A4
:1006B000A30620000800201A0C32A11520005908BA
:1006C00021007802031DA11120167808A500A306B9
:1006D000F033201B0F322208A63E84000030850034
:1006E0007808A3068000A20A04302202031DE13329
:1006F0002017DF3378082302031D1732A630840049
:1007000000308500AA308600003087000430F800F1
:1007100012001E00F80BFC33A1142114211D21101E
:10072000A11D2110A00120000800A001F22A013023
:100730000430F800AE3086000030870000301E0024
:10074000F80BFD33200008002000FA015908FA06D2
:1007500000235808FA06002321000430F900AE30C7
:100760008600003087001600FA060023F90BFB33E1
:100770007A080023972B4F260526E6256400F822E9
:10078000031D27232100A11C03328A1505208A019D
:10079000200064303E190A30A0008A252100321C56
:1007A0000B3232103B08B3073C08B43D3436B4007A
:1007B000BC00330CB300BB0056216E25111AB922C0
:1007C000B61C03323508B610D322361D0532162367
:1007D000781C0232B4003611200057080B00F52BAC
:1007E000012C632CA52C222DBE2B21003735FC00BB
:1007F000380DFD00B830FC070730FD3D2D26F125F2
:10080000F42B2100B6303707F9000330383DFA00E9
:1008100020004508F9024608FA3BFA1F1032210071
:100820001A303707F9000430383DFA002000450837
:10083000F9024608FA3BFA1B08323D15F42B4C0826
:10084000FC004D08FD00F125F42B4E08FC004F087C
:10085000FD00F125F42B20005A1C0800F9015B353E
:10086000F800F90DF835F90D21003308F8023408C5
:10087000F93B2000F91BBD1508002000F9015D358A
:10088000F800F90DF835F90D21003308F8023408A5
:10089000F93B2000F91B3D16F91BBE16F901043087
:1008A0005D07F8000030F93DF835F90DF835F90D20
:1008B00021003308F8023408F93B2000F91BBD166B
:1008C000F91B3E1608002000B81B3D322B24BD1D2D
:1008D0000632B701B801B8173E15BD1134323E11CA
:1008E000D608031925323D1CF42B3D103908370278
:1008F000FC003A08383BFD007C0403191D32FD1F43
:100900008C2C7D0F872C56087C0703181132560853
:10091000B9020030BA3B1032FD08031D04325608FC
:100920007C02031C05325608B9070301BA3D0432A4
:100930003708B9003808BA003908FC003A08FD0049
:100940002D26F125F42B3D15F42B2000B81B273262
:100950002B24BD1D0632B701B801B8173E15BD11D5
:100960001E323E113708F9003808FA0045084A07D8
:10097000FC0046084B3D3F39FD007C08F9027D082C
:10098000FA3BFA1F19325C083707F9000030383D8E
:10099000FA007C08F9027D08FA3BFA1B17323E1078
:1009A000BE10DA1D07325008BB00B9005108BC0068
:1009B000BA0015323D15F42BDA180A32BE18EF339F
:1009C0003E144C08BB004D08BC000932DA18F6335F
:1009D0003E18E533BE144E08BB004F08BC00D608D5
:1009E000031925323D1CF42B3D1039083B02FC0055
:1009F0003A083C3BFD007C0403191D32FD1F0B2D02
:100A00007D0F062D56087C07031811325608B902CF
:100A10000030BA3B1032FD08031D043256087C0238
:100A2000031C05325608B9070301BA3D04323B08DE
:100A3000B9003C08BA003908FC003A08FD002D2630
:100A4000F125F42B2000B81B45322B243D24BD1D7D
:100A50000632B701B801B8173E15BD113B323E1141
:100A6000D6080319D60A3D1CF42B3D10390837026D
:100A7000FC003A08383BFD007C0403190F32FD1FCF
:100A800011327D0F492D56087C07031C02320130BC
:100A900001325608B9020030BA3B1332BD1E612D37
:100AA0000130F8333D1AFA33FD08031D06325608AB
:100AB0007C0203180232013001325608B9070301E3
:100AC000BA3D3908FC003A08FD002D26F1253D12FB
:100AD000BD12F42B3D153D12BD12F42B2000B208BF
:100AE00003190B3261180632E1180432611902321F
:100AF000E11D08000A30B200080061180732E11851
:100B0000063261190532E119043208007A2D7A2D76
:100B10007A2D7A2D21001D1C59329D18603200302B
:100B200085001D0820007C3903191E32F8005E087C
:100B30000F39043C031D04320830780203193332A4
:100B40005F080F39043C031D043208307802031992
:100B50002A3200307802031907320030F800B3302F
:100B60008400210032142532B33084002100321475
:100B70000430F8005E080F39043C03191A320830BB
:100B8000F8005F080F39043C031913320C30F800E9
:100B900060080F39043C03190C320030F8000932A8
:100BA000B5308400EC33B7308400F033B9308400C2
:100BB000F43321001B081A001C081A0078080914D5
:100BC0009D0004302D219D14200008002100E030FC
:100BD0009E00003009149D0004302D219D1420003A
:100BE000080025007C082002031D04327D08210234
:100BF000031908328B138B1BFD337C08A0007D0882
:100C0000A1008B1720003D1108002000BD1C08002A
:100C1000BD101C26F12525004030A2009C30A30009
:100C2000200000309600FF309700250092019101CE
:100C30000830930020000800B830FC000B30FD00A5
:100C400008002000BD18080025004030A2009C309C
:100C5000A30020003D15BD140800200055087D02AA
:100C6000031C3B2E031D4A2E54087C020319080066
:100C700003184A2E080053087D02031C452E031D4D
:100C80000800D2087C02031808005208FC00530830
:100C9000FD0008005408FC005508FD000800210074
:100CA000951795129511151495141515F030990096
:100CB0001730970024008C16230003308C0000307E
:100CC0008D0020004F309C007D309B00210091144E
:100CD000200021309800991322009D171E141D1723
:100CE000CA206400E920BD142500930121001115DC
:100CF000200011308D0000308C002100BF308C00AE
:100D0000C6308D00230008309F00CF309B0000309C
:100D10009C0024309E0090309D0021009116200000
:100D2000640020006430A0000130A3006430B200F1
:100D30005708A400B81764000B220B178B17080084
:101000008A11A4238A150A1208002100A1102118B0
:101010000232200008002000AA308600003087003D
:10102000AE308400003085001600F8008130780270
:10103000031D0832053001020318EB331600D700F8
:10104000A4003B2A01307802031D033257081A001E
:10105000002882307802031D05321600B700160002
:10106000B8003B2A02307802031D053237081A0007
:1010700038081A00002883307802031D0332160056
:10108000DB003B2A03307802031D03325B081A00A1
:10109000002884307802031D05321600CC001600AB
:1010A000CD003B2A04307802031D05324C081A009B
:1010B0004D081A00002885307802031D05321600FD
:1010C000CE001600CF003B2A05307802031D053202
:1010D0004E081A004F081A00002886307802031DB7
:1010E00005321600D2001600D3003B2A06307802E3
:1010F000031D053252081A0053081A0000288730D1
:101100007802031D05321600D4001600D5003B2AD4
:1011100007307802031D053254081A0055081A00DA
:10112000002888307802031D0632DA1001300106EB
:101130000319DA143B2A08307802031D0332DA1847
:101140000014002889307802031D06325A1001303D
:10115000010603195A143B2A09307802031D033291
:101160005A18001400288B307802031D053216002F
:10117000D0001600D1003B2A0B307802031D053247
:1011800050081A0051081A0000288C307802031DFC
:10119000043216003F39D6003B2A0C307802031D7A
:1011A000033256081A0000288D307802031D0632DB
:1011B000DA11013001060319DA153B2A0D307802E5
:1011C000031D0332DA19001400288E307802031D43
:1011D00003321600DC003B2A0E307802031D033276
:1011E0005C081A0000288F307802031D06325A125C
:1011F0000130010603195A163B2A0F307802031DED
:1012000003325A1A00140028B1307802031D033249
:101210001600DD003B2A21307802031D03325D08F1
:101220001A000028B2307802031D0C320108023C7B
:10123000031C092816005E3E84000030850016005D
:101240001A003B2A22307802031D0C320108023CAE
:10125000031C092801085E3E860000308700010853
:101260001A000028B3307802031D1D321600F80062
:10127000023C031C092878085E3E8400003085008B
:10128000000807390B003B2A06323B2A04323B2A6E
:101290003B2A3B2A3B2A7808243E84000030850004
:1012A00016001A003B2A23307802031D3B32010846
:1012B000F800023C031C092878085E3E86000030D6
:1012C0008700010807390B0009281C320F320E3243
:1012D00003320C320B320A327835B53E86000030CC
:1012E000870016001A0016001A0000287808031D4F
:1012F00004320C1901301A00002803018C19013046
:101300001A0000287808031D0432611801301A0001
:101310000028013C031D0432E11801301A000028A6
:1013200003010028B4307802031D05321600CA00FC
:101330001600CB003B2A24307802031D05324A08F0
:101340001A004B081A00002891307802031D06325B
:10135000210033081A0034081A000028923078025D
:10136000031D053245081A0046081A00002893306C
:101370007802031D0B3242081A0043081A00440881
:101380001A000030C41BFF301A0000289430780285
:10139000031D05328A11F6208A150A123B2A953060
:1013A0007802031D05328A11E9208A150A123B2AA8
:1013B00096307802031D0632210035081A003608DF
:1013C0001A00002898307802031D0D323E081A00DA
:1013D0003F081A0040081A0040081A00BE11BE1249
:1013E0003E12BF01002899307802031D013201002E
:1013F0009A307802031D0732FF30AB008A113D217D
:101400008A150A120100A1307802031D0732160066
:10141000D8008A11F6208A150A120028A230780214
:10142000031D07321600D9008A11F6208A150A1208
:101430000028AA307802031D1D32F90179082622FE
:101440000038031908003C22F90AF8330B00443431
:101450004D34463445342034533465347234693461
:1014600061346C34203453346534723476346F34E0
:101470000A3400340800FF308A1100238A150A124A
:02148000080062
:103C0000B6271A27FF3A031D0B322A3014272A3011
:103C10001427A001A101A501A6015C2712262327D4
:103C200080310228AC10AA01A801AD0180308400C7
:103C3000213085002C100327F8003A307802031D4C
:103C400003320130AA00F633AA080319F4333030E6
:103C50007802031CE8333A307802031C0A32413000
:103C60007802031CE033473078020318DC33073056
:103C7000F8023030F8022C180432780EAB002C1405
:103C8000DA337808AB0701302A02031D0C324130C9
:103C90002B02031C03322B301427132E2B08A700F2
:103CA000AD07AA0A1A2E02302A02031D04322B087D
:103CB000A400AD07F63303302A02031D04322B089B
:103CC000A300AD07EE3304302A02031D07322B0890
:103CD000A900AD07A7080319AA0AE33305302A0291
:103CE000031D09322B081A00AD07A80A280827026D
:103CF000031D1A2ED63306302A02031D132EF80197
:103D00002D0878022B02031D013203322D301427B7
:103D1000132E01302902031D05322A301427AC1856
:103D2000E426080000302902031D0432A9262A30A7
:103D30001427132E04302902031D132E8030840013
:103D4000213085001200A6001200A5002A30142799
:103D5000132E25082604031D0800A436A30C1E30CC
:103D6000240203180800AC1C0D3224082102031D94
:103D70000832E0302005F800E0302405780203190D
:103D80000A32E4262308E039A0002408A100FF300D
:103D9000E03A2305A20080308400213085008701AD
:103DA0002235003E86002130873D2808F9008936FB
:103DB000A20712001E00F90BFC33AC1420302202C3
:103DC00003190232031C08004030860021308700AE
:103DD000692700308600213087004030860021307E
:103DE0008700422709180C324030860021308700B6
:103DF0003527091C7B270030860021308700922759
:103E0000AC105C2708002000911EFD3323001D0824
:103E10000639031D033219082000080019081D1275
:103E20001D119D101D16EF33111EFE3323009A0045
:103E3000200008002300FF3091001513951315147E
:103E40001308200008002300FF3091000030930089
:103E500015139513151555309600AA309600951434
:103E60009518FE331511200008002030F9001600C7
:103E7000FF3C031D003416003F3C031D0034F90BCA
:103E8000F63301342030F9001200F7001200F80078
:103E90003F3C031D0632770A031D0332160016004D
:103EA000083216007702031D003416007802031D45
:103EB0000034F90BE93301340030860021308700EB
:103EC0002030F900FF301E003F301E00F90BFA339E
:103ED00008008A27151395172030F90015140000E3
:103EE000000013081E0014081E00F90B0232200007
:103EF0000800910AF3338A2795171513151615151F
:103F000055309600AA309600951400000000151157
:103F10002000080021082300920020002008230030
:103F2000910008008A27951715131515951620304E
:103F3000F900160093001600940011081F3A1F396B
:103F40000319093255309600AA30960095140000E6
:103F50000000910AEE33951255309600AA30960073
:103F6000951400000000151120000800210095178D
:103F700095129511151495141515F03099001730F8
:103F8000970024008C16230003308C0000308D0035
:103F900022009D171E141D17200011308D000030C7
:103FA0008C002100BF308C00C6308D00230008300B
:103FB0009F00CF309B0000309C0024309E0090304A
:0C3FC0009D002100200064008B1308000D
:020000040001F9
:08000000010000000B000400E8
:10E0000000000000000000000000EA000B002200F9
:10E010000B0086000B0008000700680010000A00D3
:10E020000300010002001900320064002800000013
:06E03000000000000000EA
:02E1FE0000001F
:02000E00A42F1D
:02001000FF1FD0
:00000001FF
