:020000040000FA
:100000009E31002E8A01582A8A018801911C882875
:1000100091100A2108210621042121008C170C15BA
:100020008C152000A30B0832A10803190032A2018D
:100030002008A30021008C1320005C080F39013C2C
:10004000031D203221000C1520005F100C1D5F14D1
:10005000A408031D0332A601A801143228082604AF
:1000600003190A32A80B0E32A60803190532A60B93
:1000700005326430A80006322408A6001430A80017
:1000800021000C1120005C080F39033C031D0A32CB
:10009000241C033222000C15033222000C11003202
:1000A00021000C1120005D080F39013C031D203296
:1000B00021008C152000DF108C1DDF14A508031D06
:1000C0000332A701A90114322908270403190A32AF
:1000D000A90B0E32A70803190532A70B05326430AD
:1000E000A90006322508A7001430A90021008C11B0
:1000F00020005D080F39033C031D0A32251C033222
:1001000022008C15033222008C11003221008C1148
:100110002000111D3B323B14BB1C043225000A3069
:1001200093002E323B191E322500931827321318E4
:100130002532200891072108923D093093002000C4
:10014000581E063225002030A2004E30A300053292
:1001500025004030A2009C30A3002008A202210804
:10016000A33B1232250093180B32131CE2330A30E2
:1001700093004030A2009C30A3000232083093006C
:10018000220891072308923D20001111911E01328F
:100190005E21090020005F30FF00203084008501CF
:1001A000E4205030FF00A0308400E420850ADB20EA
:1001B000850ADB20850A5030FF0020308400E420CF
:1001C0005030FF00A03084008001840AFF0BFC3314
:1001D00008000030AA0045308400850134211A004F
:1001E000AA0A60300402031DF93308000030AA0097
:1001F0004530840085011200AB003E21AA0A603020
:100200000402031DF8330800333005323130033265
:100210002F3001322D30840000308500130000049F
:100220000319080001308002840A0301803B0800A2
:100230002000320833040800200030083104080090
:1002400020002E082F04080020002C082D04080090
:1002500005300332413001321930F7000000000050
:10026000F70BFC330800AA002A082300910015139D
:1002700095131514130820000800AA002A0823006B
:10028000910020002B0823009300151395131515DA
:100290008B138B1BFD3355309600AA3096009514B6
:1002A0009518FE3315118B17200008003619080029
:1002B000340823009A0020003615080023001D088A
:1002C0000639031D053219082000B500B6140800D0
:1002D0001908B5011D121D119D101D1620000800E2
:1002E000F8002200A00A22081F39A20A263E840034
:1002F0000130850078088000200008002200781076
:10030000A00803190A327814A00323081F39A30A8E
:10031000263E8400013085000008200008002200ED
:10032000A001A301A2012000080022002008200053
:1003300008002200210820000800F8002200A10A7D
:1003400024081F39A40A463E84000130850078083D
:100350008000200008002200A10803190232A10336
:10036000A4032000080022007810A10803190A3213
:100370007814A10325081F39A50A463E84000130E0
:1003800085000008200008002100A008031907329A
:100390002000AC08031D0332BC152100A0017E2102
:1003A000781C0800F8000530AC002100A008031DEF
:1003B0000532DD307802031920141832A0180632F5
:1003C000DD307802031D322AA014103221002019DA
:1003D0000F32A301A2012115200056082100780246
:1003E000031D211120157808A400A3062000080091
:1003F000201A0C32A1152000570821007802031D95
:10040000A11120167808A500A306F033201B0F3297
:100410002208A63E8400003085007808A3068000EC
:10042000A20A04302202031DE1332017DF337808CB
:100430002302031D1732A630840000308500AA3045
:100440008600003087000430F80012001E00F80B10
:10045000FC33A1142114211D2110A11D2110A00184
:1004600020000800A0018F2901300430F800AE30D0
:1004700086000030870000301E00F80BFD3320009E
:1004800008002000FA015708FA069D215608FA06CE
:100490009D2121000430F900AE3086000030870035
:1004A0001600FA069D21F90BFB337A089D21342AA8
:1004B0008B316B238231D124B22464009521031D3A
:1004C000C4212100A11C0332883104208231200084
:1004D00064303C190A30A00056242100321C0B3233
:1004E00032103D08B3073E08B43D3436B400BE00B8
:1004F000330CB300BD008A31092282313A24111A2B
:100500005621B61C03323508B6107021361D05324F
:10051000B321781C0232B4003611200055080B00BC
:10052000962AA22A042B462BEE2B5D2A2100373572
:10053000FC00380DFD00B830FC070730FD3DFE24FF
:10054000BD24952A2100B6303707F9000330383D25
:10055000FA0020004308F9024408FA3BFA1F10325F
:1005600021001A303707F9000430383DFA00200026
:100570004308F9024408FA3BFA1B08323B15952A56
:100580004C08FC004D08FD00BD24952A4A08FC00DB
:100590004B08FD00BD24952A2000581C0800F901D5
:1005A0005935F800F90DF835F90D21003308F80236
:1005B0003408F93B2000F91BBB1508002000F901A5
:1005C0005B35F800F90DF835F90D21003308F80214
:1005D0003408F93B2000F91B3B16F91BBC16F90146
:1005E00004305B07F8000030F93DF835F90DF835B7
:1005F000F90D21003308F8023408F93B2000F91BFB
:10060000BB16F91B3C1608002000B81B3D32CC225B
:10061000BB1D0632B701B801B8173C15BB11343207
:100620003C11D408031925323B1C952A3B1039088C
:100630003702FC003A08383BFD007C0403191D32E8
:10064000FD1F2D2B7D0F282B54087C07031811321A
:100650005408B9020030BA3B1032FD08031D0432C1
:1006600054087C02031C05325408B9070301BA3D43
:1006700004323708B9003808BA003908FC003A08D3
:10068000FD00FE24BD24952A3B15952A2000B81BA9
:100690000832CC22BB1D0C323C15BB11B701B8018E
:1006A000B81743084807B9004408493DBA008632E4
:1006B0003C113D190A323708FC003808FD00FE24C1
:1006C0007C08B7007D08B8003D15D408031D05322D
:1006D0003708B9003808BA0026323B1C24323B10D8
:1006E00037083902F80038083A3B780403191B32FE
:1006F00003180D323C14BC105408B9070030BA3D41
:100700003708390238083A3B0318E2330C323C1000
:10071000BC145408B9020030BA3B37083902380813
:100720003A3B031CD53343084807F9004408493DC8
:100730003F39FA003908F9023A08FA3B79087A0495
:1007400003193C32DA08031913327908FC007A08DD
:10075000FD00FA1F0632FC01FD017908FC027A084F
:10076000FD3BFD08031D04325A08FC02031C26321F
:10077000FA1F09327F3079047A05FF3A03190A32E9
:100780008030F9000732803079057A04031902328B
:100790007F30F900D81C09327908803C031D0232F1
:1007A0008130F9007908003CF90079084E02FC001C
:1007B0000030F91BFF304F3BFD000932D81D0A32D3
:1007C0004E08FC004F08FD003C10BC103B11F92402
:1007D000BD24952A3B153C10BC10952A2000B81B5F
:1007E0004532CC22DE22BB1D0632B701B801B81754
:1007F0003C15BB113B323C11D4080319D40A3B1CF5
:10080000952A3B1039083702FC003A08383BFD00B6
:100810007C0403190F32FD1F11327D0F152C540873
:100820007C07031C0232013001325408B902003047
:10083000BA3B1332BB1E2D2C0130F8333B1AFA336E
:10084000FD08031D063254087C02031802320130F1
:1008500001325408B9070301BA3D3908FC003A08CF
:10086000FD00FE24BD243B12BB12952A3B153B1212
:10087000BB12952A2000B20803190B325F1806320A
:10088000DF1804325F190232DF1D08000A30B2009F
:1008900008005F180732DF1806325F190532DF19CA
:1008A00004320800462C462C462C462C21001D1CE8
:1008B00059329D186032003085001D0820007C39B7
:1008C00003192232F80004307802031935325C082B
:1008D0000F39043C031D04320830780203192F320B
:1008E0005D080F39043C031D0432083078020319F7
:1008F000263200307802031907320030F800B33096
:100900008400210032142132B330840021003214DB
:100910000430F8001A320830F8005C080F39043C43
:10092000031913320C30F8005D080F39043C031929
:100930000C320030F8000932B5308400EC33B730A7
:100940008400F033B9308400F43321001B081A000E
:100950001C081A00780809149D0004302D219D14EC
:10096000200008002100E0309E00003009149D00A6
:1009700004302D219D142000080025007C08200251
:10098000031D04327D082102031908328B138B1BCF
:10099000FD337C08A0007D08A1008B1720003B11CF
:1009A00008002000BB1C0800BB10E824BD24250063
:1009B0004030A2009C30A300200000309600FF30A1
:1009C0009700250092019101083093002000080053
:1009D000B830FC000B30FD0008002000BB180800F8
:1009E00025004030A2009C30A30020003B15BB1422
:1009F00008004A3084000030850004325030840002
:100A0000003085002000023F7C02033F7D3B03183D
:100A10000D320032003F7C02013F7D3B031808008D
:100A20000032003FFC00013FFD000800023FFC00D7
:060A3000033FFD00080079
:1010000082314122883108002100A11021180232CA
:10101000200008002000AA30860000308700AE3093
:101020008400003085001600F800F039031D1332EB
:1010300078080F390B0008007F328632AD28B528BA
:10104000BF28C928D328DE28E7280800EF28F82879
:10105000012907291029803C031D133278080F3914
:101060000B00080062326B32AA28B028BA28C428C4
:10107000CE28D828E1280800EA28F428FB280429EB
:101080000A297808F039203C031D0D32F8190800B0
:10109000073078050B000800162925294E299529C7
:1010A0000800080008007808F039B03C031D0D3234
:1010B000F8190800073078050B00080013291929D2
:1010C000312990290800080008007808F039903C80
:1010D000031D13320F3078050B0008009A29A02950
:1010E000A529B029B429B8290800C4290100D129AB
:1010F000080008000800080008007808F039A03C43
:10110000031D03320F3078050B000800D729DD29B5
:101110000800080008000800080008000800E3298B
:101120000800080008000800080005300102031844
:101130006F331600D500042A55081A00002816003F
:10114000B7001600B800042A37081A0038081A0039
:101150003D1100281600D900042A59081A00002859
:101160001600CC001600CD00042A4C081A004D08C9
:101170001A0000281600CA001600CB00042A4A08EC
:101180001A004B081A0000281600D0001600D100E3
:10119000042A50081A0051081A0000281600D2002C
:1011A0001600D300042A52081A0053081A00002817
:1011B000D810013001060319D814042AD8180014D5
:1011C000002858100130010603195814042A581831
:1011D000001400281600CE001600CF00042A4E0886
:1011E0001A004F081A00002816003F39D400042ABC
:1011F00054081A000028D811013001060319D81527
:10120000042AD819001400281600DA00042A5A0803
:101210001A00002858120130010603195816042A32
:10122000581A001400281600DB00042A5B081A0074
:1012300000280108023C031C082816005C3E8400BC
:101240000030850016001A00042A0108023C031C25
:10125000082801085C3E86000030870001081A005B
:1012600000281600F800023C031C082878085C3EA1
:10127000840000308500000807390B00042A06327C
:10128000042A0432042A042A042A042A7808243E60
:1012900084000030850016001A00042A0108F800B6
:1012A000023C031C082878085C3E8600003087005A
:1012B000010807390B00082823320F320E3203329F
:1012C0000C320B320A327835B53E8600003087008A
:1012D00016001A0016001A0000287808031D0432B0
:1012E0000C1901301A000028013C031D04328C192E
:1012F00001301A00002803010C1A01301A000028DE
:101300007808031D04325F1801301A000028013CE0
:10131000031D0432DF1801301A00002803010028E1
:101320001600C8001600C900042A48081A00490817
:101330001A000028210033081A0034081A00002877
:1013400043081A0044081A00002840081A004108FF
:101350001A0042081A000030C21BFF301A00002891
:101360008031F6208931042A8031E9208931042A2C
:10137000210035081A0036081A0000282100370815
:101380001A0038081A0000283C081A003D081A0004
:101390003E081A003F081A00BC11BC123C12BD01E5
:1013A0000028FF30AB0081313D218931010016005A
:1013B000D6008031F620893100281600D700803110
:1013C000F62089310028F9017908EC210038031949
:1013D00008000522F90AF8330B0044344D34463432
:1013E00045342034533465347234693461346C3498
:1013F000203453346534723476346F34203472348C
:1014000043340A3400340800FF3081319D218A3191
:101410000800E722200070183D14F019BD14780868
:10142000F6007908F7004308F9004408FA00760846
:10143000C3007708C400451C06323C307705031909
:101440007717C5150A32C51C08323C3077053C3A7F
:10145000031D03324030F702C5154511430844040B
:10146000031945154519C515C5103C304405031928
:10147000C51445103C3044053C3A0319451479081D
:10148000F6027A08F73BF801FF30F71BF800760800
:10149000C0077708C13D7808C23D0800B822451E44
:1014A0004E326C304607F8000730473DF900F039FE
:1014B00003190732430846024408473B891B4D3253
:1014C0000C32460843024708443B891F063278081D
:1014D00043027908443B891B40326C304602073096
:1014E000473B891F1932460843024708443B891B82
:1014F00034320030F8002030F9004608F80247087E
:10150000F93B6C30F8020730F93B43087802440895
:10151000793B891B20320800460843024708443BB8
:10152000891F08006C304602F8000730473BF9007D
:10153000430878024408793B891B0F32080045169E
:101540004308C6004408C7008031F6208A310800ED
:101550001030C43D02321030C43B46084302C00084
:101560004708443BC100FF30C11F0030C2000800E3
:101570002000C001C101C201080022000D14210099
:101580000D108D140C130D122400223095009417A9
:10159000141320000800F0107011791343232E2338
:1015A0007B08F9007A08F800791343232E23790881
:1015B000FB007808FA000030F800C030F9002E2354
:1015C0005623F011791BF0153F30F9050800FF3064
:1015D000F8007F30F90043232E235623F011791BA6
:1015E000F0153F30F905701D0332F01C0132080080
:1015F0007015F014EC33FE30F8007F30F9001D2B2D
:10160000FC30F8003F30F9001D2B1630F800003098
:10161000F9001D2B1730F8000030F9001D2B183091
:10162000F8000030F9001D2B1930F8000030F900E7
:101630001D2B0130F8000030F90025235623F0114E
:10164000791BF0153F30F90508007011F01079177B
:1016500043232E230030F800C030F90022000D1083
:101660002400790891000000141CFD331108F900D2
:10167000780891000000141CFD331108F8002200C6
:101680000D1420000800F6010F30F700F80DF90DD9
:1016900080307905F606F70BF933F80DF90DF80DE2
:1016A000F90D80307605F913F9040800F6010F30C2
:1016B000F700F80DF90D80307905F606F70BF933D0
:1016C000F80DF90DF80DF90D7608790680397010CE
:1016D000891B701408002100951795129511151497
:1016E000951415152100F03099001730970024004B
:1016F0008C16230003308C0000308D0020004F300A
:101700009C007D309B002100911420002130980026
:10171000991322009D171E141D178031CA208B318A
:1017200064008031E9208B31BB1425009301210036
:101730001115200011308D0000308C002100BF30C9
:101740008C00C6308D00230008309F00CF309B00F6
:1017500000309C0024309E0090309D0021009116A6
:101760002000640020006430A0000130A300643039
:10177000B2005508A400B8176400BD220B178B17E0
:0217800008005F
:103C00009E270427FF3A031D0B322A30FE262A3056
:103C1000FE26A001A101A501A601462712260D2717
:103C200080310228AC10AA01A801AD01DE262C10BB
:103C3000ED26F8003A307802031D03320130AA0065
:103C4000F633AA080319F43330307802031CEB333F
:103C50003A307802031C0A3241307802031CE33305
:103C6000473078020318DF330730F8023030F802AB
:103C70002C180432780EAB002C14DA337808AB071A
:103C80002A0807390B00CF330632113214321732AB
:103C90001D322532C83341302B02031C03322B3036
:103CA000FE26132E2B08A700AD07AA0A172E2B08F5
:103CB000A400AD07FA332B08A300AD07F6332B0899
:103CC000A900AD07A7080319AA0AEF332B081A00A9
:103CD000AD07A80A28082702031D172EE633F801AE
:103CE0002D0878022B02031903322D30FE26132EE5
:103CF0002908F839031D183229080B000B32063247
:103D000013321232093210320F320E32AC18CD2675
:103D10002A30FE2E96260532DE261200A60012005C
:103D2000A5002A30FE26132E3D30FC33250826043C
:103D3000031D0800A436A30C1E302402031808003B
:103D4000AC1C0D3224082102031D0832E03020058E
:103D5000F800E0302305780203190A32CD26230843
:103D6000E039A0002408A100FF30E03A2305A200BA
:103D7000DE262235003E8600213087002808F90023
:103D80002836A20712001E00F90BFC33AC142030B9
:103D9000220203190232031C0800E32651270030D7
:103DA000840021308500E3262C2709180632E326FB
:103DB0001F27091C6327E8267A27462F80308400B6
:103DC000213085000800403086002130870008003F
:103DD000003086002130870008002000911EFD334E
:103DE00023001D080639031D0332190820000800AE
:103DF00019081D121D119D101D16EF33111EFE33E3
:103E000023009A00200008002300FF3091001513C2
:103E1000951315141308200008002300FF309100AB
:103E20000030930015139513151555309600AA30E0
:103E3000960095149518FE331511200008002030C7
:103E4000F9001600FF3C031D003416003F3C031D23
:103E50000034F90BF63301342030F9001200F7007A
:103E60001200F8003F3C031D0632770A031D03329F
:103E700016001600083216007702031D00341600E3
:103E80007802031D0034F90BE9330134E826AC1045
:103E90002030F900FF301E003F301E00F90BFA33CE
:103EA00008007227151395172030F900151400002B
:103EB000000013081E0014081E00F90B0232200037
:103EC0000800910AF3337227951715131516151567
:103ED00055309600AA309600951400000000151188
:103EE0002000080021082300920020002008230061
:103EF0009100080072279517151315159516203097
:103F0000F900160093001600940011081F3A1F399B
:103F10000319093255309600AA3096009514000016
:103F20000000910AEE33951255309600AA309600A3
:103F300095140000000015112000080021009517BD
:103F400095129511151495141515F0309900173028
:103F5000970024008C16230003308C0000308D0065
:103F600022009D171E141D17200011308D000030F7
:103F70008C002100BF308C00C6308D00230008303B
:103F80009F00CF309B0000309C0024309E0090307A
:083F90009D0020008B130800C6
:020000040001F9
:08000000010000000B000400E8
:10E00000000000000000000000001D000B00E50003
:10E010000B0081000B006400000098003F000A0024
:10E020000300010002001900320064002800000013
:06E03000000000000000EA
:02E1FE0000001F
:02000E00A42F1D
:02001000FF1FD0
:00000001FF
