:020000040000FA
:100000009E31002E8A01AC298A018801911C1A2890
:1000100091105E205C205A20582021008C1720006F
:10002000A30B0832A10803190032A2012008A30083
:1000300021008C13911E0132B220090020005F3094
:10004000FF0020308400850138205030FF00A030B0
:1000500084003820850A2F20850A2F20850A5030F9
:10006000FF002030840038205030FF00A030840092
:100070008001840AFF0BFC3308000030A4003630F6
:100080008400850188201A00A40A3A300402031D66
:10009000F93308000030A4003630840085011200D6
:1000A000A5009220A40A3A300402031DF833080088
:1000B0002D3005322B3003322930013227308400B5
:1000C000003085001300000403190800013080028D
:1000D000840A0301803B080020002C082D0408003E
:1000E00020002A082B040800200028082904080002
:1000F0002000260827040800053003324130013271
:100100001930F70000000000F70BFC330800A400D2
:1001100024082300910015139513151413082000CB
:100120000800A400240823009100200025082300D3
:1001300093001513951315158B138B1BFD33553039
:100140009600AA30960095149518FE3315118B175A
:1001500020000800301908002E0823009A00200013
:100160003015080023001D080639031D0532190843
:100170002000AF00B01408001908AF011D121D11B6
:100180009D101D1620000800F8002200A00A220879
:100190001F39A20A263E84000130850078088000BD
:1001A0002000080022007810A00803190A327814F1
:1001B000A00323081F39A30A263E840001308500CE
:1001C0000008200008002200A001A301A2012000D5
:1001D000080022002008200008002200210820003A
:1001E0000800F8002200A10A24081F39A40A463E8C
:1001F000840001308500780880002000080022007B
:10020000A10803190232A103A40320000800220060
:100210007810A10803190A327814A10325081F39A0
:10022000A50A463E84000130850000082000080031
:100230002100A008031907322000A608031D03327D
:10024000B2152100A001D220781C0800F80005306A
:10025000A6002100A008031D0532DD307802031935
:1002600020141832A0180632DD307802031D8629CA
:10027000A0141032210020190F32A301A201211570
:100280002000370821007802031D2111201578086D
:10029000A400A30620000800201A0C32A11520009B
:1002A000380821007802031DA11120167808A50046
:1002B000A306F033201B0F322208A63E8400003034
:1002C00085007808A3068000A20A06302202031DDA
:1002D000E1332017DF3378082302031D1732A630DD
:1002E000840000308500AC30860000308700063086
:1002F000F80012001E00F80BFC33A1142114211D7C
:100300002110A11D2110A00120000800A001E32858
:1003100001300630F800B23086000030870000302F
:100320001E00F80BFD33200008002000FA013808F9
:10033000FA06F1203708FA06F12021000630F9000C
:10034000B2308600003087001600FA06F120F90B63
:10035000FB337A08F12088298831D5208131640067
:10036000E920031D18212100A11C0332883104203B
:1003700081312000111AAA20B01C03322F08B010BE
:10038000C420301D05320721781C0232AE00301126
:02039000AF2993
:1010000081319521883108002100A1102118023278
:10101000200008002000AC30860000308700B2308D
:101020008400003085001600F80081307802031D2E
:101030000732013001020318EB331600B600A7286F
:1010400001307802031D033236081A00002882306E
:101050007802031D2232A63084000130850016007C
:10106000803F1600843F1600833F1600823F160023
:10107000813FBB20B230840000308500A130860063
:1010800001308700403F1A00443F1A00433F1A00D6
:10109000423F1A00413F1A00002894307802031D95
:1010A000043280314A208831A72895307802031D08
:1010B000043280313D208831A72898307802031D02
:1010C0000A3232081A0033081A0034081A003508A8
:1010D0001A00B211002899307802031D0132010074
:1010E0009A307802031D0632FF30A500803191202E
:1010F00088310100A1307802031D06321600B700C6
:1011000080314A2088310028A2307802031D06323F
:101110001600B80080314A2088310028AA307802B1
:10112000031D1432F90179089B20003803190800C7
:10113000A820F90AF8330B0044344D3446344534C2
:1011400020345334503449340A3400340800FF301A
:101150008031F1208831080022000D1421000D108B
:101160008D140C130D1224002230950015169417BF
:10117000141320000800A130840001308500A6303F
:101180008600013087000530F80022000D10240091
:10119000160091000000141CFD3311081A00F80B12
:1011A000F73322000D142000080021009517951236
:1011B0009511151495141515F030990017309700F6
:1011C00024008C16230000308C0000308D0020009D
:1011D0004F309C007D309B002100911422009D1710
:1011E0001E141D1780311E208831640080313D207F
:1011F0008831200011308D0000308C002100BF307C
:101200008C00C6308D00230008309F00CF309B003B
:1012100000309C0024309E0090309D0021009116EB
:101220002000640020006430A0000130A3006400AE
:08123000AC200B178B1708001E
:103C00009E270427FF3A031D0B322A30FE262A3056
:103C1000FE26A001A101A501A601462712260D2717
:103C200080310228AC10AA01A801AD01DE262C10BB
:103C3000ED26F8003A307802031D03320130AA0065
:103C4000F633AA080319F43330307802031CEB333F
:103C50003A307802031C0A3241307802031CE33305
:103C6000473078020318DF330730F8023030F802AB
:103C70002C180432780EAB002C14DA337808AB071A
:103C80002A0807390B00CF330632113214321732AB
:103C90001D322532C83341302B02031C03322B3036
:103CA000FE26132E2B08A700AD07AA0A172E2B08F5
:103CB000A400AD07FA332B08A300AD07F6332B0899
:103CC000A900AD07A7080319AA0AEF332B081A00A9
:103CD000AD07A80A28082702031D172EE633F801AE
:103CE0002D0878022B02031903322D30FE26132EE5
:103CF0002908F839031D183229080B000B32063247
:103D000013321232093210320F320E32AC18CD2675
:103D10002A30FE2E96260532DE261200A60012005C
:103D2000A5002A30FE26132E3D30FC33250826043C
:103D3000031D0800A436A30C1E302402031808003B
:103D4000AC1C0D3224082102031D0832E03020058E
:103D5000F800E0302305780203190A32CD26230843
:103D6000E039A0002408A100FF30E03A2305A200BA
:103D7000DE262235003E8600213087002808F90023
:103D80002836A20712001E00F90BFC33AC142030B9
:103D9000220203190232031C0800E32651270030D7
:103DA000840021308500E3262C2709180632E326FB
:103DB0001F27091C6327E8267A27462F80308400B6
:103DC000213085000800403086002130870008003F
:103DD000003086002130870008002000911EFD334E
:103DE00023001D080639031D0332190820000800AE
:103DF00019081D121D119D101D16EF33111EFE33E3
:103E000023009A00200008002300FF3091001513C2
:103E1000951315141308200008002300FF309100AB
:103E20000030930015139513151555309600AA30E0
:103E3000960095149518FE331511200008002030C7
:103E4000F9001600FF3C031D003416003F3C031D23
:103E50000034F90BF63301342030F9001200F7007A
:103E60001200F8003F3C031D0632770A031D03329F
:103E700016001600083216007702031D00341600E3
:103E80007802031D0034F90BE9330134E826AC1045
:103E90002030F900FF301E003F301E00F90BFA33CE
:103EA00008007227151395172030F900151400002B
:103EB000000013081E0014081E00F90B0232200037
:103EC0000800910AF3337227951715131516151567
:103ED00055309600AA309600951400000000151188
:103EE0002000080021082300920020002008230061
:103EF0009100080072279517151315159516203097
:103F0000F900160093001600940011081F3A1F399B
:103F10000319093255309600AA3096009514000016
:103F20000000910AEE33951255309600AA309600A3
:103F300095140000000015112000080021009517BD
:103F400095129511151495141515F0309900173028
:103F5000970024008C16230000308C0000308D0068
:103F600022009D171E141D17200011308D000030F7
:103F70008C002100BF308C00C6308D00230008303B
:103F80009F00CF309B0000309C0024309E0090307A
:083F90009D0020008B130800C6
:020000040001F9
:08000000010000000D000100E9
:08E00000000001000200000015
:02E1FE0000001F
:02000E00A42F1D
:02001000FF1FD0
:00000001FF
