:020000040000FA
:100000009E31002E8A01902A8A018801911CC02805
:100010009110422140213E213C2121008C170C15DA
:100020008C152000E211A30B0832A108031900323D
:10003000A2012008A30021008C1320005F080F39C3
:10004000013C031D203221008C14200062108C1C06
:100050006214A408031D0332A701AA0114322A085E
:10006000270403190A32AA0B0E32A7080319053216
:10007000A70B05326430AA0006322408A70014300A
:10008000AA0021008C1020005F080F39033C031DDB
:100090000A32241C033222008C14033222008C10FA
:1000A000003221008C10200060080F39013C031D34
:1000B000203221000C152000E2100C1DE214A508CE
:1000C000031D0332A801AB0114322B0828040319C5
:1000D0000A32AB0B0E32A80803190532A80B053201
:1000E0006430AB0006322508A8001430AB002100B4
:1000F0000C11200060080F39033C031D0A32251C37
:10010000033222000C15033222000C1100322100B0
:100110000C11200061080F39013C031D2132210020
:100120008C15200062118C1D6215A608031D033278
:10013000A901AC0115322C08290403190A32AC0BB1
:100140000F32A90803190532A90B05326430AC003F
:1001500007322608A9001430AC0021008C112000C1
:10016000200061080F39033C031D0A32261C0332AC
:1001700022008C15033222008C11003221008C11D8
:100180002000111D3B323E14BE1C043225000A30F3
:1001900093002E323E191E32250093182732131871
:1001A0002532200891072108923D09309300200054
:1001B0005B1E063225002030A2004E30A30005321F
:1001C00025004030A2009C30A3002008A202210894
:1001D000A33B1232250093180B32131CE2330A3072
:1001E00093004030A2009C30A300023208309300FC
:1001F000220891072308923D20001111911E01321F
:100200009621090020005F30FF0020308400850126
:100210001C215030FF00A03084001C21850A1321CE
:10022000850A1321850A5030FF00203084001C21EC
:100230005030FF00A03084008001840AFF0BFC33A3
:1002400008000030AD004830840085016C211A00A0
:10025000AD0A63300402031DF93308000030AD001D
:100260004830840085011200AE007621AD0A63306B
:100270000402031DF83308003630053234300332EF
:100280003230013230308400003085001300000429
:100290000319080001308002840A0301803B080032
:1002A0002000350836040800200033083404080014
:1002B000200031083204080020002F083004080014
:1002C00005300332413001321930F70000000000E0
:1002D000F70BFC330800AD002D0823009100151327
:1002E00095131514130820000800AD002D082300F5
:1002F000910020002E082300930015139513151567
:100300008B138B1BFD3355309600AA309600951445
:100310009518FE3315118B172000080039190800B5
:10032000370823009A0020003915080023001D0813
:100330000639031D053219082000B800B914080059
:100340001908B8011D121D119D101D16200008006E
:10035000F8002200A00A22081F39A20A263E8400C3
:100360000130850078088000200008002200781005
:10037000A00803190A327814A00323081F39A30A1E
:10038000263E84000130850000082000080022007D
:10039000A001A301A20120000800220020082000E3
:1003A00008002200210820000800F8002200A10A0D
:1003B00024081F39A40A463E8400013085007808CD
:1003C0008000200008002200A10803190232A103C6
:1003D000A4032000080022007810A10803190A32A3
:1003E0007814A10325081F39A50A463E8400013070
:1003F00085000008200008002100A008031907322A
:100400002000AF08031D0332BF152100A001B62153
:10041000781C0800F8000530AF002100A008031D7B
:100420000532DD307802031920141832A018063284
:10043000DD307802031D6A2AA01410322100201931
:100440000F32A301A20121152000590821007802D2
:10045000031D211120157808A400A3062000080020
:10046000201A0C32A11520005A0821007802031D21
:10047000A11120167808A500A306F033201B0F3227
:100480002208A63E8400003085007808A30680007C
:10049000A20A04302202031DE1332017DF3378085B
:1004A0002302031D1732A630840000308500AA30D5
:1004B0008600003087000430F80012001E00F80BA0
:1004C000FC33A1142114211D2110A11D2110A00114
:1004D00020000800A001C72901300430F800AE3028
:1004E00086000030870000301E00F80BFD3320002E
:1004F00008002000FA015A08FA06D5215908FA0620
:10050000D52121000430F900AE308600003087008C
:100510001600FA06D521F90BFB337A08D5216C2A8F
:100520008A31D92282311925FA246400CD21031D94
:10053000FC212100A11C03328831042082312000DB
:1005400064303F190A30A0008E242100321C0B3287
:1005500032103F08B3074008B43D3436B400C00041
:10056000330CB300BF008A310C2282317224111A7D
:100570008E21B91C03323808B910A821391D053263
:10058000EB21781C0232B7003911200058080B000B
:10059000CE2ADA2A3C2B7E2B262C952A21003B35AD
:1005A000FC003C0DFD00B830FC070730FD3D462542
:1005B0000525CD2A2100B6303B07F90003303C3D2C
:1005C000FA0020004608F9024708FA3BFA1F1032E9
:1005D00021001A303B07F90004303C3DFA002000AE
:1005E0004608F9024708FA3BFA1B08323E15CD2AA5
:1005F0004F08FC005008FD000525CD2A4D08FC00E1
:100600004E08FD000525CD2A20005B1C0800F901DD
:100610005C35F800F90DF835F90D21003308F802C2
:100620003408F93B2000F91BBE1508002000F90131
:100630005E35F800F90DF835F90D21003308F802A0
:100640003408F93B2000F91B3E16F91BBF16F901CF
:1006500004305E07F8000030F93DF835F90DF83543
:10066000F90D21003308F8023408F93B2000F91B8A
:10067000BE16F91B3F1608002000BB1B3D320423A9
:10068000BE1D0632BA01BB01BB173F15BE11343285
:100690003F11D708031925323E1CCD2A3E103C08D5
:1006A0003A02FC003D083B3BFD007C0403191D326F
:1006B000FD1F652B7D0F602B57087C070318113237
:1006C0005708BC020030BD3B1032FD08031D043248
:1006D00057087C02031C05325708BC070301BD3DC7
:1006E00004323A08BC003B08BD003C08FC003D0851
:1006F000FD0046250525CD2A3E15CD2A2000BB1B31
:1007000008320423BE1D0C323F15BE11BA01BB01D5
:10071000BB1746084B07BC0047084C3DBD0086325E
:100720003F1140190A323A08FC003B08FD004625FB
:100730007C08BA007D08BB004015D708031D0532B0
:100740003A08BC003B08BD0026323E1C24323E1055
:100750003A083C02F8003B083D3B780403191B3281
:1007600003180D323F14BF105708BC070030BD3DC1
:100770003A083C023B083D3B0318E2330C323F1081
:10078000BF145708BC020030BD3B3A083C023B088E
:100790003D3B031CD53346084B07F90047084C3D49
:1007A0003F39FA003C08F9023D08FA3B79087A041F
:1007B00003193C32DD08031913327908FC007A086A
:1007C000FD00FA1F0632FC01FD017908FC027A08DF
:1007D000FD3BFD08031D04325D08FC02031C2632AC
:1007E000FA1F09327F3079047A05FF3A03190A3279
:1007F0008030F9000732803079057A04031902321B
:100800007F30F900DB1C09327908803C031D02327D
:100810008130F9007908003CF90079085102FC00A8
:100820000030F91BFF30523BFD000932DB1D0A325C
:100830005108FC005208FD003F10BF103E11412539
:100840000525CD2A3E153F10BF10CD2A2000BB1B29
:10085000453204231623BE1D0632BA01BB01BB1765
:100860003F15BE113B323F11D7080319D70A3E1C72
:10087000CD2A3E103C083A02FC003D083B3BFD00FF
:100880007C0403190F32FD1F11327D0F4D2C5708C8
:100890007C07031C0232013001325708BC020030D1
:1008A000BD3B1332BE1E652C0130F8333E1AFA33BD
:1008B000FD08031D063257087C020318023201307E
:1008C00001325708BC070301BD3D3C08FC003D0850
:1008D000FD00462505253E12BE12CD2A3E153E12CC
:1008E000BE12CD2A2000B50803190B326218063259
:1008F000E218043262190232E21D08000A30B50023
:10090000080062180732E218063262190532E2194D
:10091000043208007E2C7E2C7E2C7E2C21001D1C97
:1009200069329D187032003085001D0820007C3926
:1009300003192E32F8005F080F39043C031D0432FE
:10094000043078020319403260080F39043C031D5B
:1009500004320830780203193A3261080F39043C36
:10096000031D04320C30780203193432103078023F
:10097000031907320030F800BD3084002100321521
:100980002C321C30F800BB3084002100B214253218
:10099000B3308400210032140430F8005F080F39AE
:1009A000043C03191A320830F80060080F39043C7F
:1009B000031913320C30F80061080F39043C031995
:1009C0000C321030F8000932B5308400EC33B73007
:1009D0008400F033B9308400F43321001B081A007E
:1009E0001C081A00780809149D00043065219D1424
:1009F000200008002100E0309E00003009149D0016
:100A0000043065219D142000080025007C08200288
:100A1000031D04327D082102031908328B138B1B3E
:100A2000FD337C08A0007D08A1008B1720003E113B
:100A300008002000BE1C0800BE103025052525003A
:100A40004030A2009C30A300200000309600FF3010
:100A500097002500920191010830930020000800C2
:100A6000B830FC000B30FD0008002000BE18080064
:100A700025004030A2009C30A30020003E15BE148B
:100A800008004D308400003085000432533084006B
:100A9000003085002000023F7C02033F7D3B0318AD
:100AA0000D320032003F7C02013F7D3B03180800FD
:100AB0000032003FFC00013FFD000800023FFC0047
:060AC000033FFD000800E9
:1010000082317922883108002100A1102118023292
:10101000200008002000AA30860000308700AE3093
:101020008400003085001600F800F039031D1332EB
:1010300078080F390B0008007F328632AD28B528BA
:10104000BF28C928D328DE28E7280800EF28F82879
:10105000012907291029803C031D133278080F3914
:101060000B00080062326B32AA28B028BA28C428C4
:10107000CE28D828E1280800EA28F428FB280429EB
:101080000A297808F039203C031D0D32F8190800B0
:10109000073078050B000800162925294E299829C4
:1010A0000800080008007808F039B03C031D0D3234
:1010B000F8190800073078050B00080013291929D2
:1010C000312993290800080008007808F039903C7D
:1010D000031D13320F3078050B0008009D29A3294A
:1010E000A829B329B729BB290800C7290100D42999
:1010F000080008000800080008007808F039A03C43
:10110000031D03320F3078050B000800DA29E029AF
:101110000800080008000800080008000800E62988
:101120000800080008000800080005300102031844
:101130006F331600D800072A58081A000028160036
:10114000BA001600BB00072A3A081A003B081A002A
:10115000401100281600DC00072A5C081A0000284D
:101160001600CF001600D000072A4F081A005008BA
:101170001A0000281600CD001600CE00072A4D08E0
:101180001A004E081A0000281600D3001600D400DA
:10119000072A53081A0054081A0000281600D50020
:1011A0001600D600072A55081A0056081A0000280B
:1011B000DB10013001060319DB14072ADB180014C9
:1011C00000285B100130010603195B14072A5B1825
:1011D000001400281600D1001600D200072A51087A
:1011E0001A0052081A00002816003F39D700072AB3
:1011F00057081A000028DB11013001060319DB151E
:10120000072ADB19001400281600DD00072A5D08F4
:101210001A0000285B120130010603195B16072A29
:101220005B1A001400281600DE00072A5E081A0068
:1012300000280108023C031C082816005F3E8400B9
:101240000030850016001A00072A0108023C031C22
:10125000082801085F3E86000030870001081A0058
:1012600000281600F800023C031C082878085F3E9E
:10127000840000308500000807390B00072A063279
:10128000072A0432072A072A072A072A7808243E51
:1012900084000030850016001A00072A0108F800B3
:1012A000023C031C082878085F3E86000030870057
:1012B000010807390B00082823320F320E3203329F
:1012C0000C320B320A327835B53E8600003087008A
:1012D00016001A0016001A0000287808031D0432B0
:1012E0008C1801301A000028013C031D04320C192F
:1012F00001301A00002803018C1901301A0000285F
:101300007808031D0432621801301A000028013CDD
:10131000031D0432E21801301A000028030162198B
:1013200001301A0000281600CB001600CC00072A56
:101330004B081A004C081A000028210033081A0034
:1013400034081A00002846081A0047081A00002826
:1013500043081A0044081A0045081A000030C51B4B
:10136000FF301A00002881312E218931072A81316E
:1013700021218931072A21003D081A003E081A0060
:10138000002821003B081A003C081A0000283F08EA
:101390001A0040081A0041081A0042081A00BF113A
:1013A000BF123F12C0010028FF30AE00813175210D
:1013B000893101001600D90081312E2189310028A0
:1013C0001600DA0081312E2189310028F9017908CF
:1013D000EF210038031908000822F90AF8330B003E
:1013E00044344D34463445342034533465347234F7
:1013F000693461346C342034533465347234763457
:101400006F342034723442340A3400340800FF3020
:101410008131D5218A31080020000C30F8000D30D0
:1014200084000130850000104608F9004708FA00E2
:10143000C601C7010012000000000000000000000B
:101440000016000000000000000003100C1B031435
:10145000C60DC70DF80BEE3300144608F60047081A
:10146000F700481C06320C30770503197716C815AB
:101470000E32C81C0C320C3077050C3A031D0732B3
:101480007608F601F6027708F701F73BC815481110
:1014900046084704031948154819C815C8100C30E8
:1014A00047050319C81448100C3047050C3A0319B6
:1014B000481476087902F60077087A3BF700F801BD
:1014C000FF30F71BF8007608C3077708C43D78089B
:1014D000C53D0800D422481E4E326C304907F80042
:1014E00007304A3DF900F03903190732460849022E
:1014F00047084A3B891B4D320C32490846024A08CC
:10150000473B891F0632780846027908473B891B0A
:1015100040326C30490207304A3B891F1932490872
:1015200046024A08473B891B34320030F80020301D
:10153000F9004908F8024A08F93B6C30F802073014
:10154000F93B460878024708793B891B203208009E
:10155000490846024A08473B891F08006C30490287
:10156000F80007304A3BF900460878024708793B03
:10157000891B0F32080048164608C9004708CA00F0
:1015800081312E218A3108001030C73D02321030DF
:10159000C73B49084602C3004A08473BC400FF3026
:1015A000C41F0030C50008002000C301C401C501EC
:1015B000080021009517951295111514951415150D
:1015C0002100F03099001730970024008C1623007A
:1015D00011308C0020308D0020004F309C007D3079
:1015E0009B00210091142000213098009913813133
:1015F00002218A316400813121218A31BE14250003
:10160000930121001115200011308D0000308C0055
:101610002100FF308C00E6308D00230008309F0051
:10162000CF309B0000309C0024309E0090309D0005
:10163000210091162000640020006430A0000130D9
:10164000A3006430B5005808A400BB1764000B1752
:041650008B170800EC
:103C00009E270427FF3A031D0B322A30FE262A3056
:103C1000FE26A001A101A501A601462712260D2717
:103C200080310228AC10AA01A801AD01DE262C10BB
:103C3000ED26F8003A307802031D03320130AA0065
:103C4000F633AA080319F43330307802031CEB333F
:103C50003A307802031C0A3241307802031CE33305
:103C6000473078020318DF330730F8023030F802AB
:103C70002C180432780EAB002C14DA337808AB071A
:103C80002A0807390B00CF330632113214321732AB
:103C90001D322532C83341302B02031C03322B3036
:103CA000FE26132E2B08A700AD07AA0A172E2B08F5
:103CB000A400AD07FA332B08A300AD07F6332B0899
:103CC000A900AD07A7080319AA0AEF332B081A00A9
:103CD000AD07A80A28082702031D172EE633F801AE
:103CE0002D0878022B02031903322D30FE26132EE5
:103CF0002908F839031D183229080B000B32063247
:103D000013321232093210320F320E32AC18CD2675
:103D10002A30FE2E96260532DE261200A60012005C
:103D2000A5002A30FE26132E3D30FC33250826043C
:103D3000031D0800A436A30C1E302402031808003B
:103D4000AC1C0D3224082102031D0832E03020058E
:103D5000F800E0302305780203190A32CD26230843
:103D6000E039A0002408A100FF30E03A2305A200BA
:103D7000DE262235003E8600213087002808F90023
:103D80002836A20712001E00F90BFC33AC142030B9
:103D9000220203190232031C0800E32651270030D7
:103DA000840021308500E3262C2709180632E326FB
:103DB0001F27091C6327E8267A27462F80308400B6
:103DC000213085000800403086002130870008003F
:103DD000003086002130870008002000911EFD334E
:103DE00023001D080639031D0332190820000800AE
:103DF00019081D121D119D101D16EF33111EFE33E3
:103E000023009A00200008002300FF3091001513C2
:103E1000951315141308200008002300FF309100AB
:103E20000030930015139513151555309600AA30E0
:103E3000960095149518FE331511200008002030C7
:103E4000F9001600FF3C031D003416003F3C031D23
:103E50000034F90BF63301342030F9001200F7007A
:103E60001200F8003F3C031D0632770A031D03329F
:103E700016001600083216007702031D00341600E3
:103E80007802031D0034F90BE9330134E826AC1045
:103E90002030F900FF301E003F301E00F90BFA33CE
:103EA00008007227151395172030F900151400002B
:103EB000000013081E0014081E00F90B0232200037
:103EC0000800910AF3337227951715131516151567
:103ED00055309600AA309600951400000000151188
:103EE0002000080021082300920020002008230061
:103EF0009100080072279517151315159516203097
:103F0000F900160093001600940011081F3A1F399B
:103F10000319093255309600AA3096009514000016
:103F20000000910AEE33951255309600AA309600A3
:103F300095140000000015112000080021009517BD
:103F400095129511151495141515F0309900173028
:103F5000970024008C16230011308C0020308D0037
:103F6000200011308D0000308C002100FF308C00CB
:103F7000E6308D00230008309F00CF309B000030DA
:103F80009C0024309E0090309D0020008B13080080
:020000040001F9
:08000000010000000B000400E8
:10E00000000000000000000000001D000B00E50003
:10E010000B0081000B00640000009C000F000A0050
:10E020000300010002001900320064002800000013
:06E03000000000000000EA
:02E1FE0000001F
:02000E00A42F1D
:02001000FF1FD0
:00000001FF
